:020000040800F2
:10000000005000201D3E0008510300085303000863
:1000100055030008570300085903000800000000BA
:100020000000000000000000000000005B0300086A
:100030005D030008000000005F0300086103000882
:100040006D3E00086D3E00086D3E00086D3E0008E4
:100050006D3E00086D3E00086D3E00086D3E0008D4
:100060006D3E00086D3E00086D3E00086D3E0008C4
:100070006D3E00086D3E00086D3E00086D3E0008B4
:100080006D3E00086D3E00086D3E00086D3E0008A4
:10009000690300086D3E00086D3E00086D3E0008D3
:1000A0006D3E00086D3E00086D3E00086D3E000884
:1000B0006D3E00086D3E00086D3E00086D3E000874
:1000C0006D3E00086D3E00086D3E00086D3E000864
:1000D0006D3E00086D3E00086D3E00086D3E000854
:0C00E0006D3E00086D3E00086D3E0008FB
:1000EC000348044B834202D0034B03B118477047BB
:1000FC009401002094010020000000000548064BEC
:10010C001B1AD90F01EBA301491002D0034B03B109
:10011C001847704794010020940100200000000053
:10012C0010B5064C237843B9FFF7DAFF044B13B133
:10013C000448AFF300800123237010BD940100200C
:10014C0000000000703E000808B5044B1BB10449C8
:10015C000448AFF30080BDE80840CFE70000000082
:10016C0098010020703E000870B50F4B0F4DAB424C
:10017C00A3EB050607D00024B61055F8043B013458
:10018C009847A642F9D803F06DFE094D094B5E1B4A
:10019C00AB424FEAA60606D0002455F8043B0134C6
:1001AC009847A642F9D870BDEC3E0008EC3E00081A
:1001BC00EC3E0008F03E000870B5860747D0541E90
:1001CC00002A3ED00346CAB201E0013C39D303F801
:1001DC00012B9D07F9D1032C2CD9CDB205EB0525AC
:1001EC000F2C1A4605EB054534D9A4F1100C2CF054
:1001FC000F0603F1100EB6444FEA1C1C1560556037
:10020C009560D56010327245F8D10CF1010214F0F2
:10021C000C0F03EB021204F00F0C13D0ACF104031F
:10022C0023F003030433134442F8045B9A42FBD1DA
:10023C000CF003042CB1C9B21C4403F8011B9C4202
:10024C00FBD170BD64461346002CF4D1F9E703468C
:10025C001446C0E7A446E1E770B586B000240294CA
:10026C000394049405940E4B9A6942F010029A611F
:10027C009B6903F010030193019B4FF40056029607
:10028C000123039302230593064D02A9284600F08F
:10029C008DFE22463146284600F096FF06B070BD12
:1002AC00001002400010014072B6FEE700B591B09C
:1002BC002822002106A8FFF77FFF00230193029359
:1002CC000393049305930223069301220A921022AE
:1002DC000B920D934FF4E0130F9306A800F07EFBE6
:1002EC0080B90F23019302210291002303934FF451
:1002FC0080620492059301A800F0A2FD20B911B010
:10030C005DF804FBFFF7D0FFFFF7CEFF08B500F058
:10031C00B3FAFFF7CBFFFFF79FFF00F041FA074B53
:10032C001B78002BFBD0064B1B78002BF7D100F071
:10033C0053FA034B01221A70F1E700BFB101002000
:10034C00B00100207047FEE7FEE7FEE7FEE77047CE
:10035C007047704708B500F0A1FA08BD08B502480F
:10036C0001F022FD08BD00BFD403002018B1022803
:10037C0002D10120704770470220704702680E4B73
:10038C009A4200D0704700B583B003F5DA33DA69CE
:10039C0042F40002DA61DB6903F400030193019B70
:1003AC0000220621142000F0D1FA142000F0DEFA0D
:1003BC0003B05DF804FB00BF005C004008B500F51D
:1003CC002671D0F8D40202F0F2FE08BD08B501EB9C
:1003DC00810300EBC303D3F86421D0F8D40202F0FC
:1003EC0013FF08BD08B501EB810300EBC3035A6A88
:1003FC00D0F8D40202F04EFF08BD08B5D0F8D402F4
:10040C0002F0EFFF08BD10B504468379022B09D129
:10041C000121D4F8D40202F0CDFFD4F8D40202F0BA
:10042C00A1FF10BDFFF740FFF2E708B5D0F8D402EA
:10043C0002F0C3FF08BD08B5D0F8D40202F0C6FF25
:10044C0008BD000010B503461C48C0F8D432C3F8F0
:10045C00C0021B4B036008230371022383710372D8
:10046C00002343728372C372037300F041FF10BB0D
:10047C00124C402300221146204601F0B0FE80238E
:10048C0000221946204601F0AAFEC0230022812139
:10049C00204601F0A4FE4FF4807300220121204677
:1004AC0001F09DFE4FF4A07300228221204601F042
:1004BC0096FE002010BDFFF7F7FED9E7D40300200D
:1004CC00005C004008B5D0F8C00200F085FFFFF7D3
:1004DC004DFF08BD08B594461A466346D0F8C002D5
:1004EC0001F03AFDFFF742FF08BD08B5D0F8C00295
:1004FC0001F074FDFFF73AFF08BD08B5D0F8C00253
:10050C0001F0EEFDFFF732FF08BD08B5D0F8C002D0
:10051C0001F026FEFFF72AFF08BDD0F8C03211F01B
:10052C00800F08D101F07F0101EB810103EBC103C6
:10053C0093F85201704701F07F0101EB810103EB4D
:10054C00C103987C704708B5D0F8C00201F019FCC3
:10055C00FFF70CFF08BD08B5D0F8C00201F09AFDFA
:10056C00FFF704FF08BD08B5D0F8C00201F06CFD20
:10057C00FFF7FCFE08BD08B5D0F8C00201F081FD04
:10058C0008BD000000487047B4010020704700000F
:10059C0012230B80004870472000002004230B809E
:1005AC00004870471C000020002393421ED200B567
:1005BC0010E00CF1370C01F813C000014FEA430CAA
:1005CC000CF1010C4FF0000E01F80CE00133DBB222
:1005DC00934209D24FEA107CB0F1204FE9D20CF1D2
:1005EC00300C01F813C0E8E75DF804FB704700001D
:1005FC0038B50B4BD3F8E807D3F8EC47D3F8F03702
:10060C00C01800D138BD074D08222946FFF7CCFF92
:10061C00042205F110012046FFF7C6FFF2E700BFE8
:10062C0000F0FF1F0200002008B51A230B80FFF713
:10063C00DFFF014808BD00BF0000002010B50A46CE
:10064C00034C2146034803F0F2F9204610BD00BFCD
:10065C00AC060020883E000810B50A46034C214623
:10066C00034803F0E4F9204610BD00BFAC0600209F
:10067C00983E000810B50A46034C2146034803F087
:10068C00D6F9204610BD00BFAC060020A43E0008E1
:10069C0010B50A46034C2146034803F0C8F920461E
:1006AC0010BD00BFAC060020B43E00080020014B7A
:1006BC0018707047B1010020202803D0212814D0D5
:1006CC00002070470B784A7843EA02238A7843EA81
:1006DC000243CA7843EA02630C4A13600B79137124
:1006EC004B7953718B799371EAE7084B1A780A703E
:1006FC005A784A709A788A70DA78CA701A790A71BC
:10070C005A794A719B798B71DAE700BF600000203F
:10071C0010B5074C00220749204603F039FB064967
:10072C00204603F03DFB054B01221A70002010BD42
:10073C00AC0B0020AC070020AC090020B10100205C
:10074C0010B5094C0A880146204603F021FB2046CF
:10075C0003F02CFB0549204603F022FB204603F056
:10076C003EFB002010BD00BFAC0B0020AC090020EC
:10077C000A4BD3F8B8327BB1D3F814320BB1012049
:10078C00704710B5054C0A460146204603F000FBA5
:10079C00204603F00BFB10BD02207047AC0B002071
:1007AC0010B5094C00220949204602F0CAFC084940
:1007BC00204602F0DDFC0749204603F0E2FA204611
:1007CC0002F0DDFC10BD00BFAC0B0020340000209B
:1007DC00500100205000002008B50C210148FFF703
:1007EC00C7FF08BD680000200D4B1A6842F00102DB
:1007FC001A6059680B4A0A405A601A6822F08472CF
:10080C0022F480321A601A6822F480221A605A6824
:10081C0022F4FE025A604FF41F029A60704700BF28
:10082C00001002400000FFF87047000010B50446AD
:10083C000E4B1A784FF47A73B3FBF2F30C4A106830
:10084C00B0FBF3F000F0A0F868B90F2C01D901202F
:10085C000AE0002221464FF0FF3000F077F8054BFC
:10086C001C60002000E0012010BD00BF7C000020B7
:10087C00780000208000002008B5074A136843F078
:10088C0010031360032000F04FF80F20FFF7CEFF8A
:10089C00FFF7CAFF002008BD00200240034A116880
:1008AC00034B1B780B441360704700BF700E002085
:1008BC007C000020014B1868704700BF700E0020B0
:1008CC00002808DB0901C9B200F1604000F5614065
:1008DC0080F80013704700F00F000901C9B2014BFA
:1008EC001954704714ED00E000B500F00700C0F19A
:1008FC00070CBCF1040F28BF4FF0040C031D062B92
:10090C000FD9C31E4FF0FF3E0EFA0CF021EA000186
:10091C0099400EFA03FE22EA0E0241EA02005DF84B
:10092C0004FB0023EEE70000074AD36823F4E063DE
:10093C001B041B0C000200F4E060034343F0BF6394
:10094C0043F40033D360704700ED00E010B504466B
:10095C00054BD868C0F30220FFF7C6FF01462046BE
:10096C00FFF7AEFF10BD00BF00ED00E0002807DB75
:10097C0000F01F02400901239340024A42F8203044
:10098C00704700BF00E100E00138B0F1807F0BD26E
:10099C004FF0E0235861054AF02182F82310002023
:1009AC00986107221A6170470120704700ED00E042
:1009BC0082B0084B1B68084AA2FB03235B0A00FBAE
:1009CC0003F3019300BF019B5A1E0192002BF9D136
:1009DC0002B0704778000020D34D6210002800F060
:1009EC00F18170B582B00446036813F0010F2CD06E
:1009FC00994B5B6803F00C03042B1DD0964B5B6882
:100A0C0003F00C03082B12D06368B3F5803F41D080
:100A1C00002B55D103F1804303F504331A6822F4FB
:100A2C0080321A601A6822F480221A6037E08A4BEE
:100A3C005B6813F4803FE7D0874B1B6813F4003FCF
:100A4C0003D06368002B00F0BF81236813F0020F02
:100A5C0075D0814B5B6813F00C0F5FD07E4B5B68DD
:100A6C0003F00C03082B54D02369002B00F08A8070
:100A7C007A4B01221A60FFF71DFF0546764B1B6867
:100A8C0013F0020F75D1FFF715FF401B0228F5D9A3
:100A9C0003209EE1704A136843F48033136063684B
:100AAC0043B3FFF707FF05466B4B1B6813F4003F7E
:100ABC00CBD1FFF7FFFE401B6428F5D9032088E15A
:100ACC00B3F5A02F09D0644B1A6822F480321A6057
:100ADC001A6822F480221A60E1E703F18043A3F53F
:100AEC003C331A6842F480221A601A6842F480324D
:100AFC001A60D4E7FFF7DEFE0546574B1B6813F46C
:100B0C00003FA2D0FFF7D6FE401B6428F5D9032086
:100B1C005FE1514B5B6813F4803FA5D14E4B1B68D2
:100B2C0013F0020F03D02369012B40F04F814A4A86
:100B3C00136823F0F803616943EAC1031360236867
:100B4C0013F0080F33D0A369002B5CD0434B012268
:100B5C00C3F88024FFF7AEFE05463F4B5B6A13F0EB
:100B6C00020F21D1FFF7A6FE401B0228F5D9032066
:100B7C002FE1394A136823F0F803616943EAC10392
:100B8C001360DCE7354B00221A60FFF793FE054635
:100B9C00314B1B6813F0020FD1D0FFF78BFE401BBB
:100BAC000228F5D9032014E10120FFF701FF236887
:100BBC0013F0040F00F09680274BDB6913F0805F75
:100BCC0034D1254BDA6942F08052DA61DB6903F0EB
:100BDC0080530193019B0125214B1B6813F4807FEB
:100BEC0026D0E368012B3DD0002B53D103F1804379
:100BFC0003F504331A6A22F001021A621A6A22F00F
:100C0C0004021A6233E0154B0022C3F88024FFF76C
:100C1C0051FE0546104B5B6A13F0020FC7D0FFF76D
:100C2C0049FE401B0228F5D90320D2E00025D3E76A
:100C3C000B4A136843F480731360FFF73BFE0646C0
:100C4C00074B1B6813F4807FCBD1FFF733FE801B5F
:100C5C006428F5D90320BCE0001002400000424299
:100C6C00007000405F4A136A43F001031362E368AB
:100C7C0033B3FFF71FFE06465A4B1B6A13F0020FE5
:100C8C002FD1FFF717FE801B41F288339842F3D91E
:100C9C0003209EE0052B09D0524B1A6A22F0010268
:100CAC001A621A6A22F004021A62E0E74D4B1A6AC1
:100CBC0042F004021A621A6A42F001021A62D6E782
:100CCC00FFF7F8FD0646474B1B6A13F0020F08D0DE
:100CDC00FFF7F0FD801B41F288339842F3D90320D3
:100CEC0077E0E5B9E369002B72D03E4A526802F016
:100CFC000C02082A56D0022B17D03B4B00221A6646
:100D0C00FFF7D8FD0446374B1B6813F0007F47D024
:100D1C00FFF7D0FD001B0228F5D9032059E0314A1A
:100D2C00D36923F08053D361DCE72F4B00221A6682
:100D3C00FFF7C0FD05462B4B1B6813F0007F06D058
:100D4C00FFF7B8FD401B0228F5D9032041E0236AC8
:100D5C00B3F5803F1AD023494B6823F47413226AED
:100D6C00606A024313434B601F4B01221A66FFF764
:100D7C00A1FD04461B4B1B6813F0007F0ED1FFF73F
:100D8C0099FD001B0228F5D9032022E0154A53686F
:100D9C0023F40033A1680B435360DCE7002018E018
:100DAC00002016E0012B16D00E4B5B6803F480314B
:100DBC00226A914211D103F47013626A93420ED1EC
:100DCC00002006E001207047012002E0012000E035
:100DDC00002002B070BD0120FBE70120F9E70120E3
:100DEC00F7E700BF00100240000042420F4B5B6867
:100DFC0003F00C02082A01D00D487047C3F383425C
:100E0C000C49885C13F4803F0BD0084B5B68C3F330
:100E1C004043094AD35C064A02FB00F0B0FBF3F0F6
:100E2C007047064B03FB00F0704700BF00100240F8
:100E3C0000127A00DC3E0008D83E000800093D0094
:100E4C00002800F0A08070B50D460446524B1B687C
:100E5C0003F007038B420BD24F4A136823F00703AE
:100E6C000B431360136803F007038B4240F08D8033
:100E7C00236813F0020F17D013F0040F04D0474A65
:100E8C00536843F4E0635360236813F0080F04D0F5
:100E9C00424A536843F460535360404A536823F00A
:100EAC00F003A1680B435360236813F0010F31D09A
:100EBC006368012B20D0022B25D0384A126812F01F
:100ECC00020F64D035494A6822F0030213434B6089
:100EDC00FFF7F0FC0646314B5B6803F00C036268CD
:100EEC00B3EB820F16D0FFF7E5FC801B41F2883381
:100EFC009842F0D9032045E0284A126812F4003FCA
:100F0C00E0D101203EE0254A126812F0007FD9D1D1
:100F1C00012037E0204B1B6803F00703AB420AD9D2
:100F2C001D4A136823F007032B431360136803F067
:100F3C000703AB422DD1236813F0040F06D0174AD8
:100F4C00536823F4E063E1680B435360236813F0A8
:100F5C00080F07D0114A536823F46053216943EA00
:100F6C00C1035360FFF742FF0C4B5B68C3F30313E1
:100F7C000B4AD35CD8400B4B18600B4B1868FFF72F
:100F8C0055FC002070BD012070470120FAE70120BC
:100F9C00F8E70120F6E700BF0020024000100240F5
:100FAC00C83E0008780000208000002070B582B098
:100FBC000024A446A2E07E4DAB4210D007D97D4D53
:100FCC00AB420CD005F58035AB4208D013E0A5F54B
:100FDC008015AB4203D005F57025AB4207D18B6869
:100FEC00002B55D0012B4ED04261082403E0A5F50F
:100FFC008015AB42F3D0BEF1FF0F4BD806464FEA3B
:10100C008C0233680F25954023EA050304FA02F29B
:10101C00134333604B6813F0805F6DD0664B9A6955
:10102C0042F001029A619B6903F001030193019B59
:10103C004FEA9C02951C614B53F825600CF003059C
:10104C00AD000F23AB4026EA03065D4B984228D037
:10105C0003F58063984200F08D8003F5806398421D
:10106C0000F08A8003F58063984218D0042319E0BD
:10107C00CC68C0E7CC680434BDE7CC680834BAE768
:10108C00CC680C34B7E702610824B4E70024B2E75B
:10109C000424B0E7061DACF108029200B1E703236B
:1010AC0000E00023AB4033430232444D45F822307C
:1010BC004B6813F4801F61D0424A936843EA0E03D5
:1010CC0093604B6813F4001F5ED03E4AD36843EA2A
:1010DC000E03D3604B6813F4003F5BD0394A53685E
:1010EC0043EA0E0353604B6813F4803F58D0354AE3
:1010FC00136843EA0E0313600CF1010C0B6833FA0E
:10110C000CF253D0012202FA0CF203EA020E32EA7C
:10111C000303F1D14B68122B3FF64DAF122B3FF668
:10112C006AAF01A555F823F0EB0F00087D100008FD
:10113C00871000089910000803100008031000081D
:10114C000310000803100008031000080310000827
:10115C000310000803100008031000080310000817
:10116C000310000803100008031000088110000889
:10117C008D100008012395E7022393E7114A936829
:10118C0023EA0E0393609CE70E4AD36823EA0E030E
:10119C00D3609FE70B4A536823EA0E035360A2E720
:1011AC00084A136823EA0E031360A5E702B070BD6A
:1011BC00000022100000311000100240000001401D
:1011CC0000080140000401400AB1016170470904A4
:1011DC000161704738B512F4804F44D00468B4F8FC
:1011EC0050309BB291F800C003EBCC03023304EBFC
:1011FC004304B4F80044C4F309048B69A34228D314
:10120C001B1B8B618B697BB9056835F82C309BB245
:10121C0023F4804323F0700383F4005343F400431E
:10122C0043F0800325F82C3012F0400F0ED00268EA
:10123C000D7832F825309BB223F4E04323F0700391
:10124C0043F4004343F0C00322F8253024B9204670
:10125C0038BD00238B61D5E723460A8949690068AC
:10126C0001F057FFF3E70468B4F850309BB291F8E3
:10127C0000C003EBCC03063304EB4304B4F8004486
:10128C00C4F309048B69A3422FD31B1B8B618B699D
:10129C007BB9056835F82C309BB223F4804323F0DE
:1012AC00700383F4005343F4004343F0800325F8A8
:1012BC002C3012F0400F0FD1026891F800C032F8B8
:1012CC002C309BB223F4E04323F0700343F400432F
:1012DC0043F0C00322F82C30002CB8D023464A89A6
:1012EC004969006801F015FFB1E700238B61CEE777
:1012FC0038B500286ED0044690F89132A3B1032380
:10130C0084F8913200236371206800F095FF234626
:10131C0053F8040B0ECB00F07FFF50B1022384F87E
:10132C0091320125284638BD80F89032FFF726F817
:10133C00E5E70021206800F089FF034608B9024662
:10134C0015E0022384F891320125EBE702EB8201D0
:10135C0004EBC101012048740A740020C8740862AF
:10136C004862013202EB8201C9006050D2B220798E
:10137C009042EBD816E003EB830204EBC20200218F
:10138C0082F8511182F8503182F85311C2F8601171
:10139C00C2F8641103EB830204EBC202C2F86811B9
:1013AC000133DBB29842E6D8234653F8040B0ECB3C
:1013BC0000F04EFF054620B1022384F8913201253E
:1013CC00B0E700236373012384F89132206801F0A5
:1013DC009EFAA7E70125A5E738B590F89032012BC6
:1013EC0011D00446012580F89052006800F01BFFD4
:1013FC002946204600F00FFF206801F086FA0020F5
:10140C0084F8900238BD0220FCE770B505460C4606
:10141C00164612F0400F00F00E810268B2F8503000
:10142C009BB2097803EBC103023302EB4302B2F81F
:10143C000024C2F30902A36993424ED99B1AA361FB
:10144C00A369002B66D16378002B49D12B68B3F8C4
:10145C00502092B2134403EB0113B3F80424C2F3EB
:10146C000902A3F80424B3F804246FEA42426FEA99
:10147C00524292B2A3F804242B686278002A3CD121
:10148C00B3F8502092B21344227803EB0213B3F852
:10149C000C24C2F30902A3F80C24B3F80C246FEA51
:1014AC0042426FEA524292B2A3F80C2421782846A9
:1014BC00FEF798FF16F4804F41D02A68217832F855
:1014CC0021309BB223F4E04323F0700343F44043F8
:1014DC0043F0800322F8213031E00023A361AFE711
:1014EC00012BC9D12B68B3F8502092B2134403EBF3
:1014FC0001130022A3F80424BEE7012AD6D1B3F8C5
:10150C00502092B21344227803EB02130022A3F86A
:10151C000C24CBE716F4804F0DD0286830F821301E
:10152C009BB223F4E04323F0700343F4404343F0B5
:10153C00800320F8213094F82430012B12D02A6833
:10154C00217832F821309BB223F4E04323F040039E
:10155C0083F0300343F4004343F0800322F821303E
:10156C00002070BD636913446361E3691344E36154
:10157C00216A2369994224D3C91A21626278002A0C
:10158C0044D12A68B2F8501089B20A44217802EB8F
:10159C000112B2F80414C1F30901A2F804143E2B91
:1015AC001BD9580913F01F0F00D10138B2F80414DD
:1015BC0089B2800280B2014341F40041A2F80414C4
:1015CC0026E021B9002384F824301346D6E7002303
:1015DC0084F8243023620B46D0E74BB9B2F80414DC
:1015EC006FEA41416FEA514189B2A2F804140FE04D
:1015FC00590813F0010F00D00131B2F8040480B285
:10160C00890289B20143A2F8041401E0012A06D030
:10161C009BB222896169286801F081F98FE72A68F9
:10162C00B2F8501089B20A44217802EB011299B237
:10163C00A2F80414ECE70268B2F850309BB20978B7
:10164C0003EBC103063302EB4302B2F80024C2F3EE
:10165C000902A36993424FD39B1AA361A369002B80
:10166C0067D16378002B4AD12B68B3F8502092B223
:10167C00134403EB0113B3F80424C2F30902A3F8D7
:10168C000424B3F804246FEA42426FEA524292B245
:10169C00A3F804242B686278002A3DD1B3F85020BB
:1016AC0092B21344227803EB0213B3F80C24C2F366
:1016BC000902A3F80C24B3F80C246FEA42426FEA37
:1016CC00524292B2A3F80C2421782846FEF78AFEE7
:1016DC0016F4804F7FF433AF2A68217832F821302A
:1016EC009BB223F4E04323F0700343F4404343F0F4
:1016FC00800322F8213022E70023A361AEE7012BFF
:10170C00C8D12B68B3F8502092B2134403EB0113E9
:10171C000022A3F80424BDE7012AD5D1B3F8502048
:10172C0092B21344227803EB02130022A3F80C2488
:10173C00CAE716F4804F0DD1286830F821309BB2DF
:10174C0023F4E04323F0700343F4404343F080035D
:10175C0020F8213094F82430012B7FF4F0AE63692B
:10176C0013446361E3691344E361216A2369994279
:10177C0024D3C91A21622A686178002943D1B2F8AE
:10178C00501089B20A44217802EB0112B2F80C1401
:10179C00C1F30901A2F80C143E2B1BD9580913F004
:1017AC001F0F00D10138B2F80C1489B2800280B23C
:1017BC00014341F40041A2F80C1426E021B90023A6
:1017CC0084F824301346D6E70023236284F82430AF
:1017DC000B46D0E74BB9B2F80C146FEA41416FEAF3
:1017EC00514189B2A2F80C140FE0590813F0010F03
:1017FC0000D00131B2F80C0480B2890289B20143E5
:10180C00A2F80C1401E0012906D09BB2628961692F
:10181C00286801F084F892E6B2F8501089B20A44B4
:10182C00217802EB011299B2A2F80C14EDE72DE924
:10183C00F04105462868B0F8443013F4004F00F02E
:10184C009D82B0F84440A3B214F00F0440F0DE8047
:10185C0013F0100F6BD003889AB213F4006F40F0A2
:10186C00998012F4004FE5D0038823F070031B0518
:10187C001B0D43F0800303802868B0F850309BB2F6
:10188C0095F8502103EBC203063300EB4303B3F886
:10189C000034C3F30903C5F86C318BB1D5F864116E
:1018AC0071B1B5F8562101F034FCD5F86431D5F896
:1018BC006C211344C5F8643100212846FEF786FDDF
:1018CC002A68138899B213F4006FB3D101F4405114
:1018DC00B1F5405FAED0B2F850309BB21A44B2F8BA
:1018EC000C34C3F30903A2F80C34D5F860313E2B49
:1018FC0073D9590913F01F0F00D10139B2F80C3408
:10190C009BB2890289B20B4343F40043A2F80C3416
:10191C002A6813889BB223F4804323F0700383F46A
:10192C00405343F4004343F08003138082E7038861
:10193C009BB223F4E14323F070036FEA43436FEA55
:10194C0053439BB203802A68B2F850309BB2297C77
:10195C0003EBC103023302EB4302B2F80034C3F3CE
:10196C000903EB626A6A1A446A6200212846FEF790
:10197C0039FD6B7B002B3FF45DAFAB6A002B7FF422
:10198C0059AF6B7B2A6843F08003A2F84C300023DC
:10199C006B734FE7B0F850309BB295F8502103EBC6
:1019AC00C203063300EB4303B3F80034C3F309035B
:1019BC00C5F86C31B5F8562105F5267101F0A9FB77
:1019CC002A68138823F070031B051B0D43F080035A
:1019DC0013802846FEF7F2FC2CE74BB9B2F80C3416
:1019EC006FEA43436FEA53439BB2A2F80C348FE780
:1019FC00590813F0010F00D00131B2F80C3498B231
:101A0C008B029BB20343A2F80C3481E730F82430EC
:101A1C009EB213F4004F50D116F0800F3FF40AAF72
:101A2C0004EB8401C900103129442A6832F82430AF
:101A3C009BB223F4E14323F070036FEA43436FEA54
:101A4C0053439BB222F8243004EB840305EBC3030D
:101A5C00DB7C012B00F0F28016F4807F40F0898152
:101A6C002868B0F850309BB204EB840205EBC2023C
:101A7C00167C03EBC603023300EB4303B3F80034CC
:101A8C00C3F30903621C02EB820255F832209A421E
:101A9C0040F25281671C07EB8707D21A45F83720B2
:101AAC00621C02EB820255F83220002A40F04B8176
:101ABC0031462846FEF796FCBCE630F8243023F07D
:101ACC0070031B051B0D43F0800320F8243004EB3E
:101ADC008401C90001F5A87105EB010804EB84032E
:101AEC0005EBC30393F85C31002B42D12868B0F8A6
:101AFC0050309BB204EB840205EBC20292F85021E9
:101B0C0003EBC203063300EB4303B3F80074C7F3D3
:101B1C00090717BB04EB840305EBC303D3F86C2153
:101B2C003A44C3F86C21D3F864213A44C3F86421D5
:101B3C00D3F868313BB104EB840305EBC303D3F852
:101B4C0060319F4275D204EB840305EBC30393F819
:101B5C0050112846FEF73AFC5EE704EB840105EBD6
:101B6C00C1013B46B1F85621D1F8641101F0D1FA0C
:101B7C00D0E704EB840305EBC30393F85331022B3A
:101B8C0035D0296804EB840205EBC20292F85001AF
:101B9C0031F820309BB223F4E04323F0700343F47C
:101BAC00004343F0C00321F82030286892F85021FC
:101BBC0030F8223013F4804F20D0B0F850309BB264
:101BCC0003EBC203023300EB4303B3F80074C7F317
:101BDC000907002F9ED004EB840105EBC1013B46A5
:101BEC00B1F85821D1F8641101F093FA92E732461A
:101BFC0041462846FFF7EEFA07468BE7B0F850301F
:101C0C009BB203EBC203063300EB4303B3F800743F
:101C1C00C7F30907002F3FF47DAF04EB840105EBFC
:101C2C00C1013B46B1F85A21D1F8641101F071FAA7
:101C3C0070E74146286800F085FEEDE6631C03EB77
:101C4C008303DB000022EA5004EB840305EBC3039F
:101C5C001B7F1BB316F0400F3BD004EB840305EB4A
:101C6C00C3035B7C1BBB2B68B3F8502092B21344AC
:101C7C0004EB840205EBC202127C03EB0213B3F8F3
:101C8C000424C2F30902A3F80424B3F804246FEA71
:101C9C0042426FEA524292B2A3F8042404EB840449
:101CAC0005EBC404217C2846FEF79CFBC2E5012B06
:101CBC00F4D12B68B3F8502092B2134404EB840295
:101CCC0005EBC202127C03EB02130022A3F80424DE
:101CDC00E4E72B6804EB840205EBC202527CD2B918
:101CEC00B3F8502092B2134404EB840205EBC20209
:101CFC00127C03EB0213B3F80C24C2F30902A3F811
:101D0C000C24B3F80C246FEA42426FEA524292B2AE
:101D1C00A3F80C24C2E7012AC0D1B3F8502092B228
:101D2C00134404EB840205EBC202127C03EB021396
:101D3C000022A3F80C24B1E7621C02EB8202D20051
:101D4C000027AF50ACE604EB840205EBC202566AE6
:101D5C001E445662013404EB840205EBC202526845
:101D6C0004EB840405EBC4041344636000F0EAFD47
:101D7C0060E532462846FFF748FB5BE50020BDE8EE
:101D8C00F08190F89032012B0CD010B50446012351
:101D9C0080F890324173006800F0B1FD002084F8A7
:101DAC00900210BD0220704710B584B00446006844
:101DBC0000F0AFFD10F4004F20D110F4806F21D152
:101DCC0010F4804F2FD110F4005F37D110F4805FE6
:101DDC003ED110F4006F40F0878010F4007F40F08B
:101DEC00AE8010F4807F27D02268B2F844309BB2CA
:101DFC0023F480739BB2A2F844301DE02046FFF719
:101E0C0016FD19E02268B2F844309BB223F48063CB
:101E1C009BB2A2F844302046FEF7F5FA002120468A
:101E2C00FFF7AFFF08E02268B2F844309BB223F40E
:101E3C0080439BB2A2F8443004B010BD2268B2F8C3
:101E4C0044309BB223F400539BB2A2F84430F3E726
:101E5C002268B2F840309BB223F004039BB2A2F884
:101E6C0040302268B2F840309BB223F008039BB29A
:101E7C00A2F840302046FEF7DEFA2268B2F8443071
:101E8C009BB223F480539BB2A2F84430D4E722686F
:101E9C0032F8231004AA02EB430222F8101C01337F
:101EAC00DBB2072BF3D92268B2F840309BB243F077
:101EBC000103A2F840302268B2F840309BB223F004
:101ECC0001039BB2A2F840302368B3F8442012F40B
:101EDC00806FF9D0B3F8442092B222F4806292B2AF
:101EEC00A3F8442000230BE00023DAE7226804A9BE
:101EFC0001EB430131F8101C22F823100133DBB243
:101F0C00072BF3D92268B2F840309BB243F0080398
:101F1C00A2F840302268B2F844309BB223F400633C
:101F2C009BB2A2F844302268B2F840309BB243F026
:101F3C000403A2F840302046FEF777FA7CE72268CB
:101F4C00B2F844309BB223F400739BB2A2F8443035
:101F5C002046FEF752FA6FE710B50446084611F01A
:101F6C00800F26D101F0070C0CEB8C0E4FEACE0E35
:101F7C000EF5A87E04EB0E010CEB8C0C04EBCC0CD8
:101F8C004FF0000E8CF851E100F0070008700A6168
:101F9C00CB70022B1DD094F89032012B1CD0012356
:101FAC0084F89032206800F064F9002084F89002E4
:101FBC0010BD01F0070C0CEB8C01C9001031214451
:101FCC000CEB8C0C04EBCC0C4FF0010E8CF811E0EC
:101FDC00DAE700230B71DEE70220E9E710B50446CF
:101FEC000A4611F0800F1FD101F0070000EB8003AF
:101FFC00DB0003F5A873E11800EB800004EBC000D4
:10200C00002380F8513102F007020A7094F89032E4
:10201C00012B17D0012384F89032206800F00EFBBE
:10202C00002084F8900210BD01F0070000EB800343
:10203C00DB001033E11800EB800004EBC00001233F
:10204C004374E0E70220EEE710B501F0070C0CEB4F
:10205C008C01C90001F5A8710CEB8C0E00EBCE0EB7
:10206C00CEF86421CEF868310024CEF86C418EF89D
:10207C0051418EF850C10144006800F063FC2046C9
:10208C0010BD01F0070101EB810100EBC100D0F89C
:10209C006C01704738B501F0070C0CEB8C01C900D2
:1020AC0010310CEB8C0E00EBCE0ECEF824200CF184
:1020BC00010202EB820440F8343001258EF83450D2
:1020CC00CEF8303000EBC402002454608EF811506E
:1020DC008EF810C00144006800F034FC204638BD76
:1020EC0038B501F007050279AA4235D304460B46F0
:1020FC0011F0800F1ED101EB8101C90001F5A8710F
:10210C00014403EB830300EBC303002283F851214A
:10211C0001238B700D7094F89032012B1ED001238B
:10212C0084F89032206800F074FB7DB1002084F8B4
:10213C00900238BD05EB8501C9001031014405EB57
:10214C00850300EBC30301225A74E1E704F5267101
:10215C00206800F0E2FBE9E70120EAE70220E8E76B
:10216C000B46017903F00F02914234D310B50446AB
:10217C0013F0800F21D103F0070202EB8201C9009A
:10218C0001F5A871014402EB820200EBC2020020AF
:10219C0082F8510100228A7003F007030B7094F847
:1021AC009032012B19D0012384F89032206800F072
:1021BC0055FB002084F8900210BD03F0070202EBDF
:1021CC008201C9001031014402EB820200EBC20211
:1021DC0001205074DEE7012070470220ECE711F07B
:1021EC00800F0BD001F0070101EB8101C900103108
:1021FC00084452B90273C3800020704701EB81017F
:10220C00C90001F5A8710844F3E7012202730381A8
:10221C001B0C4381F0E7704784B004A800E90E0062
:10222C00002004B0704703460020A3F844004FF48C
:10223C003F42A3F840207047B0F8403023F47C5361
:10224C005B045B0CA0F84030002070470020704706
:10225C0084B0844604A800E90E000123ACF8403099
:10226C000020ACF84000ACF84400ACF8500004B0CE
:10227C00704710B5034691F800C030F82C2092B28C
:10228C0022F4EC4222F0700292B2C878032861D892
:10229C00DFE800F0555C0258002048F2800E42EA5C
:1022AC000E0223F82C2091F800C033F82C2092B2A7
:1022BC0022F4E04222F0700242EA0C0242EA0E02E0
:1022CC0023F82C200A7B002A40F0DC804A78002A74
:1022DC0051D0B3F8502092B21A440C7802EB04128D
:1022EC00B1F806C04FEA5C0C4FEA4C0CA2F800C4E3
:1022FC000C7833F8242012F0400F0CD033F8242043
:10230C0092B222F4E04222F0700242F4004242F017
:10231C00C00223F82420CA78012A1DD0097833F88A
:10232C00212092B222F4E04222F0400282F02002FC
:10233C0042F4004242F0800223F8212017E142F4DB
:10234C000072AAE742F4C0620020A6E742F4806261
:10235C000020A2E70120A0E7097833F8212092B2EF
:10236C0022F4E04222F0400242F4004242F08002A9
:10237C0023F82120FBE0B3F8502092B21A440C78D9
:10238C0002EB0412B1F806C04FEA5C0C4FEA4C0C9D
:10239C00A2F808C4B3F8502092B21A440C7802EB9D
:1023AC000412B2F80CC4CCF3090CA2F80CC40C69DE
:1023BC003E2C39D94FEA541E14F01F0F01D10EF1E7
:1023CC00FF3EB2F80CC41FFA8CFC4FEA8E2E1FFA9B
:1023DC008EFE4CEA0E0C4CF4004CA2F80CC40C789B
:1023EC0033F8242012F4804F0CD033F8242092B20E
:1023FC0022F4E04222F0700242F4404242F08002A9
:10240C0023F82420097869BB33F8212092B222F4F6
:10241C00804222F0700282F4405242F4004242F0B8
:10242C00800223F82120A2E04CB9B2F80C446FEAE8
:10243C0044446FEA5444A4B2A2F80C44CFE74FEAE8
:10244C00540C14F0010F01D00CF1010CB2F80C4437
:10245C00A4B24FEA8C2C1FFA8CFC44EA0C04A2F8B0
:10246C000C44BCE733F8212092B222F4804222F0D3
:10247C00700282F4005242F4004242F0800223F8CF
:10248C00212074E0CA78022A72D00C7833F8242008
:10249C0092B222F4E24222F0700242F4004242F084
:1024AC00800223F82420B3F8502092B21A4491F8F9
:1024BC0000C002EB0C12B1F808C04FEA5C0C4FEAFA
:1024CC004C0CA2F800C4B3F8502092B21A4491F804
:1024DC0000C002EB0C12B1F80AC04FEA5C0C4FEAD8
:1024EC004C0CA2F808C44A78002A50D10C7833F866
:1024FC00242012F4804F0CD033F8242092B222F412
:10250C00E04222F0700242F4404242F0800223F892
:10251C0024200C7833F8242012F0400F0CD033F820
:10252C00242092B222F4E04222F0700242F40042E3
:10253C0042F0C00223F8242091F800C033F82C207C
:10254C0092B222F4804222F0700282F4405248F29D
:10255C008004224323F82C20097833F8212092B2EE
:10256C0022F4E04222F04002224323F8212010BD45
:10257C000C7833F8242092B222F4E04222F070025C
:10258C0042F4014242F0800223F824208BE70C78BD
:10259C0033F8242012F4804F0CD033F8242092B25C
:1025AC0022F4E04222F0700242F4404242F08002F7
:1025BC0023F824200C7833F8242012F0400F0CD090
:1025CC0033F8242092B222F4E04222F0700242F45A
:1025DC00004242F0C00223F82420CA78012A1ED0FF
:1025EC000C7833F8242092B222F4E04222F040021C
:1025FC0082F0200242F4004242F0800223F82420B0
:10260C00097833F8212092B222F4804222F0700231
:10261C0042F4004242F0800223F82120A7E70C7814
:10262C0033F8242092B222F4E04222F0400242F429
:10263C00004242F0800223F82420E1E70B7B002BC0
:10264C0046D14B7813B30A7830F8223013F0400F90
:10265C000CD030F822309BB223F4E04323F070030B
:10266C0043F4004343F0C00320F822300A7830F8DA
:10267C0022309BB223F4E04323F0400343F40043A5
:10268C0043F0800320F82230002070470A7830F89D
:10269C00223013F4804F0CD030F822309BB223F44C
:1026AC00E04323F0700343F4404343F0800320F8ED
:1026BC0022300A7830F822309BB223F4804323F086
:1026CC00700343F4004343F0800320F82230DBE72F
:1026DC004B78002B4ED10A7830F8223013F4804F0F
:1026EC000CD030F822309BB223F4E04323F070037B
:1026FC0043F4404343F0800320F822300A7830F84A
:10270C00223013F0400F0CD030F822309BB223F45F
:10271C00E04323F0700343F4004343F0C00320F87C
:10272C0022300A7830F822309BB223F4E04323F0B5
:10273C00700343F4004343F0C00320F822300A78BE
:10274C0030F822309BB223F4804323F0700348F21C
:10275C00800C43EA0C0320F822300A7830F822303F
:10276C009BB223F4E04323F0400343EA0C0320F82C
:10277C00223089E70A7830F8223013F4804F0CD0DD
:10278C0030F822309BB223F4E04323F0700343F47F
:10279C00404343F0800320F822300A7830F822308E
:1027AC0013F0400F0CD030F822309BB223F4E043EE
:1027BC0023F0700343F4004343F0C00320F82230AD
:1027CC000A7830F822309BB223F4E04323F07003F4
:1027DC0043F4404343F0800320F822300A7830F869
:1027EC0022309BB223F4E04323F0400348F2800CE8
:1027FC0043EA0C0320F822300A7830F822309BB2DE
:10280C0023F4804323F0700343EA0C0320F82230B6
:10281C003AE74B788BB10A7830F822309BB223F42C
:10282C00E04323F0400383F0100343F4004343F0F0
:10283C00800320F82230002070470A7830F82230CC
:10284C009BB223F4804323F0700383F4805343F44E
:10285C00004343F0800320F82230ECE70B7B002B85
:10286C004BD14B7833B30A7830F8223013F0400F49
:10287C000CD030F822309BB223F4E04323F07003E9
:10288C0043F4004343F0C00320F82230CB78012BF3
:10289C0033D00A7830F822309BB223F4E04323F093
:1028AC00400383F0200343F4004343F0800320F8FB
:1028BC00223022E00A7830F8223013F4804F0CD00A
:1028CC0030F822309BB223F4E04323F0700343F43E
:1028DC00404343F0800320F822300A7830F822304D
:1028EC009BB223F4804323F0700383F4405343F4EE
:1028FC00004343F0800320F822300020704711B9C8
:10290C008023A0F84C300020704700207047002036
:10291C007047B0F8440080B2704700207047013314
:10292C005B0800EB420000F5806008E00A7891F843
:10293C0001C042EA0C2220F8042B0231013B002B8F
:10294C00F4D1704770B505460C464A78012A3BD045
:10295C000B7B002B40F0A6828B690A69934240F2F4
:10296C0084829B1A8B61B5F850309BB22B44217832
:10297C0003EB0113B3F80C14C1F30901A3F80C1405
:10298C003E2A40F27682510912F01F0F00D1013914
:10299C00B3F80C2492B2890289B20A4342F4004281
:1029AC00A3F80C24227835F822309BB223F4804310
:1029BC0023F0700383F4405343F4004343F080034B
:1029CC0025F82230002070BD8E6909698E4200D92D
:1029DC000E46237B73B3E378022B4DD0236A9B1BEB
:1029EC002362217835F8213013F0400F00F0F58187
:1029FC00002A40F0E281B5F850309BB22B4403EB37
:102A0C000113B3F80C24C2F30902A3F80C243E2ED4
:102A1C0040F2BA81710916F01F0F00D10139B3F8D9
:102A2C000C2492B2890289B20A4342F40042A3F800
:102A3C000C24CBE1B6B23346E28861692846FFF735
:102A4C006EFFB5F850309BB22B44227803EB021387
:102A5C00A3F80464227835F822309BB223F4E043C7
:102A6C0023F0400383F0300343F4004343F080032E
:102A7C0025F822300020A6E7236A994280F066816F
:102A8C00227835F822309BB223F4E04323F0700314
:102A9C0043F4014343F0800325F82230236A9B1B47
:102AAC002362227835F8223013F0400F00F0A78013
:102ABC006378B3BBB5F850309BB22B4403EB0213D5
:102ACC00B3F80C24C2F30902A3F80C243E2E0FD940
:102ADC00710916F01F0F00D10139B3F80C2492B212
:102AEC00890289B20A4342F40042A3F80C241AE08A
:102AFC004EB9B3F80C246FEA42426FEA524292B2DA
:102B0C00A3F80C240FE0720816F0010F00D001326C
:102B1C00B3F80C1489B2920292B20A43A3F80C24B3
:102B2C0001E0012B30D0B3B2628961692846FFF70E
:102B3C00F6FE636933446361236A226993422DD99B
:102B4C009B1B23626378002B45D1B5F850309BB2A8
:102B5C002B44227803EB0213B3F80424C2F30902CA
:102B6C00A3F804243E2E1DD9710916F01F0F00D1B5
:102B7C000139B3F8042492B2890289B20A4342F4AF
:102B8C000042A3F8042428E0B5F850309BB22B4443
:102B9C0003EB0213B2B2A3F80C24C4E700222262A6
:102BAC001E46CFE74EB9B3F804246FEA42426FEAEF
:102BBC00524292B2A3F804240FE0720816F0010FEF
:102BCC0000D00132B3F8041489B2920292B20A43D3
:102BDC00A3F8042401E0012B06D0B3B22289616969
:102BEC002846FFF79CFE35E7B5F850309BB22B44D6
:102BFC00227803EB0213B2B2A3F80424EDE7637856
:102C0C00B3BBB5F850309BB22B4403EB0213B3F8B3
:102C1C000424C2F30902A3F804243E2E0FD971092F
:102C2C0016F01F0F00D10139B3F8042492B28902B7
:102C3C0089B20A4342F40042A3F804241AE04EB9C4
:102C4C00B3F804246FEA42426FEA524292B2A3F8FC
:102C5C0004240FE0720816F0010F00D00132B3F813
:102C6C00041489B2920292B20A43A3F8042401E03C
:102C7C00012B30D0B3B2228961692846FFF74FFE91
:102C8C00636933446361236A226993422DD99B1B88
:102C9C0023626378002B45D1B5F850309BB22B449E
:102CAC00227803EB0213B3F80C24C2F30902A3F845
:102CBC000C243E2E1DD9710916F01F0F00D10139BD
:102CCC00B3F80C2492B2890289B20A4342F400424E
:102CDC00A3F80C2428E0B5F850309BB22B4403EB3E
:102CEC000213B2B2A3F80424C4E7002222621E46E7
:102CFC00CFE74EB9B3F80C246FEA42426FEA524266
:102D0C0092B2A3F80C240FE0720816F0010F00D059
:102D1C000132B3F80C1489B2920292B20A43A3F8AE
:102D2C000C2401E0012B06D0B3B2628961692846FC
:102D3C00FFF7F5FD8EE6B5F850309BB22B442278A8
:102D4C0003EB0213B2B2A3F80C24EDE7217835F8AB
:102D5C00212092B222F4E24222F0700242F40042AC
:102D6C0042F0800225F82120B5F8502092B22A4476
:102D7C00217802EB01129BB2A2F80434228961691A
:102D8C002846FFF7CCFD65E64EB9B3F80C246FEA84
:102D9C0042426FEA524292B2A3F80C2416E0720837
:102DAC0016F0010F00D00132B3F80C1489B2920264
:102DBC0092B20A43A3F80C2408E0B5F850309BB249
:102DCC002B4403EB0113B2B2A3F80C24B3B2628907
:102DDC0061692846FFF7A3FD3CE6B2BBB5F850305D
:102DEC009BB22B4403EB0113B3F80424C2F3090286
:102DFC00A3F804243E2E0FD9710916F01F0F00D131
:102E0C000139B3F8042492B2890289B20A4342F41C
:102E1C000042A3F8042421E04EB9B3F804246FEA6D
:102E2C0042426FEA524292B2A3F8042416E07208AE
:102E3C0016F0010F00D00132B3F8041489B29202DB
:102E4C0092B20A43A3F8042408E0B5F850309BB2C0
:102E5C002B4403EB0113B2B2A3F80424B3B22289BE
:102E6C0061692846FFF75BFDF4E500228A611A468A
:102E7C0079E54AB9B3F80C246FEA42426FEA524240
:102E8C0092B2A3F80C248DE5510812F0010F00D07A
:102E9C000131B3F80C2492B2890289B20A43A3F827
:102EAC000C247FE5CB78022B4DD0012B40F02F81E9
:102EBC0089692369994240F2E680C91AA161F2B985
:102ECC00B5F8502092B22A44217802EB0112B2F8E4
:102EDC000414C1F30901A2F804143E2B40F2D7806C
:102EEC00580913F01F0F00D10138B2F8041489B23D
:102EFC00800280B2014341F40041A2F804146278CC
:102F0C00002A40F0F680B5F8502092B22A4421787D
:102F1C0002EB0112B2F80C14C1F30901A2F80C1463
:102F2C003E2B40F2CD80590913F01F0F00D101390F
:102F3C00B2F80C349BB2890289B20B4343F40043C0
:102F4C00A2F80C342EE5F2B9B0F850309BB2034421
:102F5C000A7803EB0213B3F80424C2F30902A3F8B2
:102F6C0004240A693E2A31D9510912F01F0F00D1ED
:102F7C000139B3F8042492B2890289B20A4342F4AB
:102F8C000042A3F804246378002B51D1B5F85030DB
:102F9C009BB22B44227803EB0213B3F80C24C2F33C
:102FAC000902A3F80C2422693E2A28D9510912F0EF
:102FBC001F0F00D10139B3F80C2492B2890289B2E7
:102FCC000A4342F40042A3F80C2433E04AB9B3F8A4
:102FDC0004246FEA42426FEA524292B2A3F80424EC
:102FEC00D1E7510812F0010F00D00131B3F80424DD
:102FFC0090B28A0292B20243A3F80424C3E74AB9FE
:10300C00B3F80C246FEA42426FEA524292B2A3F830
:10301C000C240FE0510812F0010F00D00131B3F86D
:10302C000C2490B28A0292B20243A3F80C2401E061
:10303C00012B1DD0E369002B3FF4B4AC227835F89A
:10304C00221044F2400303EA01008B4302D0002813
:10305C007FF4A8AC35F822309BB223F4E04323F084
:10306C00700343F4004343F0C00325F8223099E485
:10307C00B5F850309BB22B44227803EB0213228A12
:10308C00A3F80C24D6E70023A3610B4617E74BB932
:10309C00B2F804146FEA41416FEA514189B2A2F8C7
:1030AC0004142CE7590813F0010F00D00131B2F8C9
:1030BC00040480B2890289B20143A2F804141EE709
:1030CC004BB9B2F80C346FEA43436FEA53439BB2EB
:1030DC00A2F80C3466E4590813F0010F00D001314A
:1030EC00B2F80C3498B28B029BB20343A2F80C34A6
:1030FC0058E4012A7FF456ACB5F8502092B22A4419
:10310C00217802EB01129BB2A2F80C344AE40120A4
:10311C0059E410B45C0800EB420000F5806007E055
:10312C0030F8042B0A70C2F307224A700231013CBA
:10313C00002CF5D113F0010F01D003880B7010BCDB
:10314C00704798B108B50346D0F8B40210B100200E
:10315C00C3F8B40209B1C3F8B012012183F89C1270
:10316C001A701846FDF76EF9002008BD0220704752
:10317C0019B1C0F8B412002070470220704708B58E
:10318C00FDF7A0F9002008BD08B5D0F8B4322BB17A
:10319C001B68984700B908BD0220FCE70220FAE73B
:1031AC0008B5D0F8B4325B689847002008BD38B534
:1031BC00044600F52A75284600F035F90123C4F8B9
:1031CC009432B4F8AE32C4F8983294F8A81201F0E4
:1031DC001F03012B0ED0022B11D02BB101F080015B
:1031EC002046FDF78AF903E02946204600F0CAFA8A
:1031FC00002038BD2946204600F0F8FAF8E72946A9
:10320C00204600F023FBF3E738B504460D4691BB8E
:10321C001346D0F89422032A03D0052A24D008465A
:10322C0033E0D0F86011D0F8642191420DD9891A9D
:10323C00C0F860118A4206D98AB21946204600F0BD
:10324C0037FC284621E092B2F7E7D0F8B4321B697C
:10325C001BB190F89C22032A04D0204600F030FCCD
:10326C00284612E09847F8E70021C0F89412FDF7C1
:10327C0044F9284609E0D0F8B4329B6933B190F890
:10328C009C22032A04D19847002038BD0220FCE779
:10329C000220FAE738B504460D46002953D11346EF
:1032AC00D0F89422022A0CD0042A00D01AB980211A
:1032BC002046FDF722F994F8A032012B3ED0284687
:1032CC0038BD026A416A8A421BD8C269B2FBF1F36B
:1032DC0001FB13232BB9914203D8D0F898329A42B0
:1032EC001CD3D4F8B432DB681BB194F89C22032AAB
:1032FC0021D080212046FDF700F9204600F0EBFBA1
:10330C00D9E7521A026292B2194600F0BAFB0023B6
:10331C001A4619462046FDF726F9CCE7002211463D
:10332C0000F0AFFB0021C4F898120B460A46204669
:10333C00FDF719F9BFE720469847DAE7002384F830
:10334C00A0322846BCE7D0F8B4325B6933B190F8B0
:10335C009C22032A04D198470020B1E70220AFE752
:10336C000220ADE770B50446402300221146FDF75C
:10337C00B1F80125C4F858514026C4F864613346AD
:10338C00002280212046FDF7A5F8A561666284F82D
:10339C009C520023C4F894326360C4F8A432D4F86D
:1033AC00B8322BB1D4F8B4325B6800212046984770
:1033BC00002070BD01740020704790F89C3280F89A
:1033CC009D32042380F89C320020704790F89C3288
:1033DC00042B01D00020704790F89D3280F89C326D
:1033EC00F8E708B590F89C32032B01D0002008BDFB
:1033FC00D0F8B432DB69002BF8D09847F6E70346D7
:10340C00002002E00130C0B201331A78002AF9D151
:10341C00704708B54B88012B00D008BDC0F8A4320A
:10342C0000F04EFBF9E70B7803704B7843708B7808
:10343C00CA7803EB022343800B794A7903EB02230E
:10344C0083808B79CA7903EB0223C380704710B554
:10345C0004468021FDF751F800212046FDF74DF878
:10346C0010BD30B583B005460C460023ADF80630D0
:10347C004A88130A013B062B00F2A480DFE803F014
:10348C0004182CA2A2869300D0F8B0321B680DF160
:10349C000601007C9847BDF806201AB1E388002B82
:1034AC0040F09480E388002B00F09A8003B030BD8C
:1034BC00037C43B9D0F8B4329B6A0DF106009847EF
:1034CC0002234370E7E7D0F8B432DB6A0DF1060053
:1034DC00984702234370DEE7D2B2052A52D8DFE8C0
:1034EC0002F003101D2A3744D0F8B0325B6823B1C8
:1034FC000DF10601007C9847CDE72146FFF7A7FFA9
:10350C00D4E7D0F8B0329B6823B10DF10601007CF2
:10351C009847C0E72146FFF79AFFC7E7D0F8B032CB
:10352C00DB6823B10DF10601007C9847B3E7214617
:10353C00FFF78DFFBAE7D0F8B0321B6923B10DF15C
:10354C000601007C9847A6E72146FFF780FFADE710
:10355C00D0F8B0325B6923B10DF10601007C9847BD
:10356C0099E72146FFF773FFA0E7D0F8B0329B69CB
:10357C0023B10DF10601007C98478CE72146FFF73B
:10358C0066FF93E72146FFF762FF8FE7037C33B9B1
:10359C00D0F8B4325B6B0DF1060098477BE72146FF
:1035AC00FFF755FF82E7037C43B9D0F8B4321B6BAD
:1035BC000DF106009847072343706CE72146FFF78F
:1035CC0046FF73E72146FFF742FF6FE79A4228BF99
:1035DC001A46ADF806200146284600F045FA61E788
:1035EC00284600F06DFA61E738B504468B88F3B9CC
:1035FC00CB88E3B94B887F2B19D803F07F0590F863
:10360C009C32032B0CD080F89E522946FCF79BFF72
:10361C00204600F055FA35B1022384F89C3209E0BB
:10362C00FFF715FF06E0012384F89C3202E02046E8
:10363C00FFF70DFF38BD000038B504460D468978FC
:10364C00284B197001290ED890F89C32022B0ED001
:10365C00032B21D02946FFF7FAFE224B197820467E
:10366C00FFF79EFD02E02946FFF7F1FE38BD81B160
:10367C004160032380F89C32FFF786FD022803D0BB
:10368C00204600F01DFAF1E729462046FFF7DFFE41
:10369C00ECE700F015FAE9E789B1436899421DD0CF
:1036AC00D9B2FFF77DFD0F4B197861602046FFF70B
:1036BC006BFD02280DD0204600F002FAD6E702235B
:1036CC0080F89C324160FFF76BFD204600F0F8F962
:1036DC00CCE729462046FFF7BAFEC7E700F0F0F921
:1036EC00C4E700BF740E002008B5CB88012B0AD1AB
:1036FC0090F89C32022B09D9032B09D10122011D10
:10370C0000F0B2F901E0FFF7A2FE08BD5BB213B9FD
:10371C00FFF79DFEF9E70146002341F8083F01221F
:10372C0000F0A2F9F1E708B590F89C32013B022BAE
:10373C0012D8CB88022B0CD10123C360D0F8A43251
:10374C000BB10323C360022200F10C0100F08CF9D1
:10375C0008BDFFF77CFEFBE7FFF779FEF8E708B53D
:10376C0090F89C32013B022B09D84B88012B00D0DE
:10377C0008BD0023C0F8A43200F0A2F9F8E7FFF767
:10378C0066FEF5E708B50B7803F06003202B05D037
:10379C00402B03D043B1FFF75AFE03E0D0F8B4320C
:1037AC009B689847002008BD4B78092B1BD8DFE895
:1037BC0003F011171A141A08051A0E0BFFF751FE15
:1037CC00F0E7FFF711FFEDE7FFF736FFEAE7FFF74A
:1037DC008BFFE7E7FFF7A7FFE4E7FFF71AFEE1E748
:1037EC00FFF7BDFFDEE7FFF732FEDBE738B5054636
:1037FC000C460B7803F06003202B06D0402B04D032
:10380C001BB1FFF724FE002038BD95F89C32013B1C
:10381C00022B16D82379012B0ED8D5F8B4329B681D
:10382C00214628469847E388002BECD10028EAD1A2
:10383C00284600F045F9E6E721462846FFF707FE43
:10384C00E1E721462846FFF702FEDCE770B50546A6
:10385C008B880C7804F06004202C07D0DAB2402C52
:10386C0004D05CB1FFF7F3FD002405E0D5F8B432C9
:10387C009B68284698470024204670BD202C09D010
:10388C004E78012E33D0032E0AD0002E55D0FFF7E0
:10389C00DEFDF1E7D0F8B4329B6898470446EBE7BD
:1038AC0090F89C32022B04D0032B11D0FFF7CFFDE4
:1038BC00E2E70AB1802A03D12846FFF7C8FDDBE70F
:1038CC001146FCF71AFE80212846FCF716FED3E7BA
:1038DC004B8823B91AB1802A01D0CB881BB128465A
:1038EC0000F0EEF8C8E71146FCF707FEF7E790F892
:1038FC009C32022B04D0032B11D0FFF7A8FDBBE7A1
:10390C000AB1802A03D12846FFF7A1FDB4E711467E
:10391C00FCF7F3FD80212846FCF7EFFDACE74B8864
:10392C00002BA9D112F07F0F03D1284600F0C8F864
:10393C00A2E71146FCF7E9FDF7E790F89C02022894
:10394C0006D0032829D02846FFF781FD344693E79B
:10395C000AB1802A13D113F0800F15D102F07F0227
:10396C0002EB8202910001F5A87129440431002375
:10397C000B600222284600F077F834467CE7284694
:10398C00FFF765FD344677E702F07F0202EB820217
:10399C009100103129440431E9E75BB2002B1FDBA5
:1039AC0002F00F0000EB800005EB8000D0F858010E
:1039BC0020B3002B27DB02F07F0303EB83039C0077
:1039CC0004F5A8742C4404340AB1802A24D10023B1
:1039DC00236002222146284600F046F834464BE785
:1039EC0002F00F0000EB800005EB800080690028DE
:1039FC00DFD12846FFF72BFD34463DE72846FFF77D
:103A0C0026FD344638E702F07F0303EB83039C006A
:103A1C0010342C440434D7E711462846FCF77DFDBE
:103A2C0010B101232360D4E700232360D1E7D0B188
:103A3C0070B50D4616460446FFF7E1FC431C5B00CF
:103A4C009BB233802B7003236B70022307E001348D
:103A5C005A1CD2B2E8540233DBB20021A9542078AC
:103A6C000028F4D170BD704708B513460222C0F887
:103A7C009422C36103620A460021FCF76CFD00200E
:103A8C0008BD08B513460A460021FCF764FD00206A
:103A9C0008BD08B513460322C0F89422C0F85C3167
:103AAC00C0F860310A460021FCF75DFD002008BD1E
:103ABC0008B513460A460021FCF755FD002008BD49
:103ACC0008B50423C0F8943200231A461946FCF7B3
:103ADC0042FD002008BD08B50523C0F89432002330
:103AEC001A461946FCF73FFD002008BD10B5D0F86A
:103AFC00B842D0F8BC325BB194F80002FF2807D072
:103B0C009B6894F8012221469847FF2384F80032E1
:103B1C00002010BD4323038000487047C8000020DC
:103B2C0043230380004870470C010020432303808B
:103B3C0000487047840000200A2303800048704727
:103B4C008801002038B50446D0F8B852FCF713FDB4
:103B5C00C5F80C02D4F8B8324BB1D4F8BC32DB68DF
:103B6C0005F50371D5F804029847002038BD0220F2
:103B7C00FCE710B5D0F8B822D0F8C042F2B101EB96
:103B8C00810300EB8303DB694BB101EB810C04EB8C
:103B9C00CC04246AB3FBF4FC04FB1C3323B10023D8
:103BAC00C2F81432002010BD01EB810300EB83033B
:103BBC000022DA611346FCF7CEFCF3E70220F2E7B1
:103BCC00F0B583B006460C46D0F8B87200238DF8D9
:103BDC000730ADF804300B7813F0600527D0202D9A
:103BEC0053D1CA88DAB113F0800F0CD0D0F8BC32A4
:103BFC009B68394660789847E28839463046FFF72B
:103C0C0033FF002544E04B7887F800328B7987F836
:103C1C000132CA883946FFF73CFF002538E0D0F85E
:103C2C00BC329B68002248789847002530E04F78DA
:103C3C000A2F14D00B2F20D01FB1FFF708FC022540
:103C4C0026E090F89C32032B03D0FFF700FC0225F2
:103C5C001EE0022201A9FFF707FF3D4618E090F88D
:103C6C009C32032B03D0FFF7F2FB022510E001225C
:103C7C000DF10701FFF7F8FE0AE090F89C32032BD8
:103C8C0006D0FFF7E4FB022502E0FFF7E0FB02257C
:103C9C00284603B0F0BD38B504468121FCF725FC5D
:103CAC000025E56201212046FCF71FFCC4F86C518D
:103CBC0082212046FCF719FC2564D4F8B8324BB1AC
:103CCC00D4F8BC325B689847D4F8B802FCF75EFCB9
:103CDC00C4F8B852002038BD70B50446037CABBBA9
:103CEC004FF4007302228121FCF7F4FB0125E562FD
:103CFC004FF40073022229462046FCF7EBFBC4F874
:103D0C006C510823032282212046FCF7E3FB01239C
:103D1C0023644FF40770FCF735FC0546C4F8B80271
:103D2C0068B3D4F8BC321B6898470023C5F814322A
:103D3C00C5F81832267CCEB94FF40073D5F804229E
:103D4C0001212046FCF70FFC304670BD40230222B7
:103D5C008121FCF7BFFB0125E562402302222946A5
:103D6C002046FCF7B7FBC4F86C51CAE74023D5F8E2
:103D7C00042201212046FCF7F6FB0026E4E701268D
:103D8C00E2E719B1C0F8BC1200207047022070475E
:103D9C00D0F8B832C3F80812C3F8102200207047CC
:103DAC00D0F8B832C3F8041200207047D0F8B8220B
:103DBC009AB108B5D2F814320BB1012008BD012319
:103DCC00C2F81432D2F8103203639BB2D2F8082234
:103DDC008121FCF7C0FB0020F0E702207047D0F8EF
:103DEC00B82292B108B5037C43B94FF40073D2F8F2
:103DFC0004220121FCF7B7FB002008BD4023D2F8B8
:103E0C0004220121FCF7AFFBF6E70220704700000B
:103E1C000D488546FCF7E8FC0C480D490D4A00237B
:103E2C0002E0D458C4500433C4188C42F9D30A4A63
:103E3C000A4C002301E013600432A242FBD3FCF7CE
:103E4C0093F9FCF763FAFEE7005000200000002015
:103E5C0094010020F43E000894010020780E00200C
:103E6C00FEE70000F8B500BFF8BC08BC9E467047E2
:0C3E7C00F8B500BFF8BC08BC9E467047BB
:103E880056435020496E7465726661636500000090
:103E980056435020436F6E666967000053544D3394
:103EA80032204344432044656D6F000053544D69EC
:103EB80063726F656C656374726F6E69637300001B
:103EC80000000000000000000102030406070809C2
:103ED8000102000002030405060708090A0B0C0D7D
:043EE8000E0F101099
:043EEC005501000874
:043EF0002D01000898
:103EF4001A030000000000000000000000000000A1
:103F04000000000000000000000000000403090499
:103F14001201000202020040830440570002010221
:103F2400030100009D050008A90500089D0600087E
:103F340081060008350600086506000849060008E1
:103F44001D070008B9060008C50600084D0700084B
:103F540000C201000000080068656C6C6F776F7226
:103F64006C640A0D0000000000A24A040100000075
:103F74001000000009074300020104C032090400D4
:103F840000010202010005240010010524010001C2
:103F94000424020205240600010705820308001018
:103FA40009040100020A00000007050102400000A4
:103FB400070581024000000009024300020100C01D
:103FC4003209040000010202010005240010010569
:103FD40024010001042402020524060001070582CD
:103FE4000308001009040100020A0000000705018B
:103FF400024000000705810240000000090243005E
:10400400020100C03209040000010202010005247B
:104014000010010524010001042402020524060005
:10402400010705820308001009040100020A0000C8
:1040340000070501020002000705810200020000DA
:10404400E53C0008A33C0008CD3B0008000000004C
:10405400F93A00087F3B0008513B000800000000CB
:1040640000000000000000002D3B0008213B000878
:10407400393B0008453B00080A06000200000040E6
:044084000100000037
:0400000508003E1D94
:00000001FF
