:020000040800F2
:1000000000000220254900083509000837090008CA
:10001000390900083B0900083D09000800000000FC
:100020000000000000000000000000003F09000880
:1000300041090008000000004309000845090008C4
:100040007549000875490008754900087549000898
:100050007549000875490008754900087549000888
:100060007549000875490008754900087549000878
:100070007549000875490008754900087549000868
:10008000754900087549000875490008000000001E
:10009000000000000000000000000000754900089A
:1000A0007549000875490008754900087549000838
:1000B0007549000875490008754900087549000828
:1000C0007549000875490008754900087549000818
:1000D00075490008754900085D0900080000000026
:1000E00075490008754900087549000800000000BE
:1000F000000000000000000000000000754900083A
:10010000000000007549000875490008754900089D
:1001100000000000000000000000000000000000DF
:1001200075490008754900087549000875490008B7
:1001300075490008000000000000000000000000F9
:100140000000000000000000000000004D09000851
:100150007549000875490008754900087549000887
:100160007549000875490008000000000000000003
:10017000000000000000000000000000000000007F
:1001800000000000754900080000000000000000A9
:080190007549000875490008DB
:1001C0000348044B834202D0034B03B118477047E6
:1001D0001001002010010020000000000548064B1F
:1001E0001B1AD90F01EBA301491002D0034B03B135
:1001F0001847704710010020100100200000000087
:1002000010B5064C237843B9FFF7DAFF044B13B15E
:100210000448AFF300800123237010BD10010020BB
:10022000000000007849000808B5044B1BB10449E0
:100230000448AFF30080BDE80840CFE700000000AD
:10024000140100207849000870B50F4B0F4DAB42E8
:10025000A3EB050607D0B610002455F8043B013483
:100260009847A642F9D804F087FB094D094B5E1B5D
:10027000AB424FEAA60606D0002455F8043B0134F1
:100280009847A642F9D870BD7C4A00087C4A00080D
:100290007C4A0008804A0008830730B547D0541EC6
:1002A000002A3ED0CAB2034601E0013C39D303F82C
:1002B000012B9D07F9D1032C2CD9CDB205EB0525D7
:1002C0000F2C05EB054535D9A4F1100222F00F0CD7
:1002D00003F1100EE6444FEA121C1A4615605560F1
:1002E0009560D56010327245F8D10CF1010214F01E
:1002F0000C0F03EB021204F00F0C13D0ACF104034B
:1003000023F003030433134442F8045B9A42FBD105
:100310000CF003042CB1C9B21C4403F8011B9C422D
:10032000FBD130BD64461346002CF4D1F9E70346F7
:100330001446C0E71A46A446E0E700BF00000000EC
:1003400090F800F06DE9024520F007016FF0000C15
:1003500010F0070491F820F040F049804FF00004BD
:100360006FF00700D1E9002391F840F000F1080098
:1003700082FA4CF2A4FA8CF283FA4CF3A2FA8CF3D0
:100380004BBBD1E9022382FA4CF200F10800A4FA37
:100390008CF283FA4CF3A2FA8CF3E3B9D1E904238B
:1003A00082FA4CF200F10800A4FA8CF283FA4CF3C2
:1003B000A2FA8CF37BB9D1E9062301F1200182FA7C
:1003C0004CF200F10800A4FA8CF283FA4CF3A2FA82
:1003D0008CF3002BC6D0002A04BF04301A4612BA90
:1003E000B2FA82F2FDE8024500EBD2007047D1E993
:1003F000002304F00305C4F100004FEAC50514F022
:10040000040F91F840F00CFA05F562EA05021CBFF2
:1004100063EA050362464FF00004A9E753B94AB9FD
:10042000002908BF00281CBF4FF0FF314FF0FF30FC
:1004300000F06AB9ADF1080C6DE904CE00F006F8E1
:10044000DDF804E0DDE9022304B070472DE9F04750
:10045000089D0C46002B4ED194468C458646B2FA38
:1004600082F262D94AB1C2F12003914020FA03F32B
:100470000CFA02FC194300FA02FE4FEA1C471FFA6D
:100480008CF6B1FBF7F44FEA1E4307FB141143EA65
:10049000014304FB06F199420AD91CEB030304F162
:1004A000FF3080F01381994240F21081023C634496
:1004B000591A1FFA8EF3B1FBF7F007FB101143EA4C
:1004C000014300FB06F69E420AD91CEB030300F130
:1004D000FF3180F0FD809E4240F2FA806344023892
:1004E0009B1B40EA044000211DB1D3400022C5E916
:1004F0000032BDE8F0878B4205D90DB1C5E9000196
:1005000000210846F5E7B3FA83F1002946D1A3425A
:1005100002D39042C0F0F180861A64EB03030120FD
:10052000002DE6D0C5E90063E3E7002A40F09180A2
:10053000A1EB0C044FEA1C481FFA8CF70121B4FB15
:10054000F8F64FEA1E4308FB164443EA044307FB50
:1005500006F0984208D91CEB030306F1FF3402D2DF
:10056000984200F2CE8026461C1A1FFA8EF3B4FB86
:10057000F8F008FB104443EA044300FB07F79F42EE
:1005800008D91CEB030300F1FF3402D29F4200F2B2
:10059000B1802046DB1B40EA0640A5E7C1F12006FA
:1005A0008B4022FA06F71F4320FA06FC04FA01F3F7
:1005B00043EA0C03F44000FA01F8380C4FEA1349FF
:1005C000B4FBF0FE1FFA87FC00FB1E4449EA04441A
:1005D0000EFB0CF9A14502FA01F20AD93C190EF101
:1005E000FF3A80F08580A14540F28280AEF1020E94
:1005F0003C44A4EB09041FFA83F9B4FBF0F300FBBD
:10060000134449EA044403FB0CFCA44507D93C19F4
:1006100003F1FF3068D2A44566D9023B3C4443EA6B
:100620000E40A0FB0293A4EB0C049C42CE469C46D9
:1006300052D34FD055B1B8EB0E0364EB0C0404FA5F
:1006400006F6CB40CC401E43C5E900640021BDE85E
:10065000F087C2F1200320FA03F10CFA02FC24FA1D
:1006600003F394400C434FEA1C4800FA02FE1FFAC1
:100670008CF7B3FBF8F008FB1031230C43EA01437D
:1006800000FB07F1994208D91CEB030300F1FF3688
:100690002CD299422AD9023863445B1AA4B2B3FB24
:1006A000F8F108FB113344EA034401FB07F3A342CA
:1006B00008D91CEB040401F1FF3613D2A34211D96F
:1006C00002396444E41A41EA004138E70446EFE69F
:1006D000084605E7C845ADD2B9EB020E63EB070C3F
:1006E0000138A7E73146EDE7034698E73046D4E7FF
:1006F000D6467EE7634402384CE706462346084662
:100700000EE7023E63442FE7704700BF70B586B026
:1007100000230193029303930493059300930D4BDD
:100720001A6B42F004021A631B6B03F0040300937C
:10073000009B4FF40055019501260296064C01A935
:10074000204600F0F3FF32462946204601F0D2F859
:1007500006B070BD003802400008024038B50546BA
:100760000C460846FFF7ECFD642382B2214628467A
:1007700002F028FE38BD72B6FEE7000000B595B065
:100780003022002108A8FFF787FD0023039304937C
:1007900005930693079301931E4A116C41F0805113
:1007A0001164126C02F080520192019A02931A4A6B
:1007B000116841F440411160126802F44042029213
:1007C000029A0222089201210B9110210C910E92A3
:1007D0000F931091C023119312920423139308A82E
:1007E00000F020FC88B90F23039302230493002315
:1007F00005934FF4805206920793032103A800F05B
:1008000061FE20B915B05DF804FBFFF7B4FFFFF7F8
:10081000B2FF00BF003802400070004030B589B020
:1008200000240394049405940694079401941E4BA9
:100830001A6B42F001021A631A6B02F00102019274
:10084000019A02941A6C42F400321A641B6C03F48D
:1008500000330293029B0C2503950223049301228B
:1008600005920693072307930DEB05010F4800F04F
:100870005DFF0F480F4B03604FF4E133436084602A
:10088000C460046145618461C46102F06BFD48B9D4
:1008900000220621262000F09DFB262000F0AAFB66
:1008A00009B030BDFFF767FF00380240000002408A
:1008B000300100200044004008B500F0F7FAFFF7CF
:1008C0005DFFFFF723FFFFF7A9FF134C13492046F5
:1008D000FFF744FF00F090FA11492046FFF73EFF72
:1008E00008E04FF400510F4801F00AF84FF4FA7095
:1008F00000F008FB0C4B1B78002BF2D00B4B1B7845
:10090000002BEED100F094FA084B01221A7008492E
:100910000148FFF723FFE4E7300100209049000879
:10092000BC490008000802402D0100202C010020D5
:10093000F04900087047FEE7FEE7FEE7FEE7704774
:100940007047704708B500F0CBFA08BD08B50248FB
:1009500001F00FFB08BD00BF9803002008B5024856
:1009600002F022FE08BD00BF3001002018B10228AD
:1009700002D10120704770470320704730B589B01D
:100980000023039304930593069307930368B3F13D
:10099000A04F01D009B030BD00250195164C236B46
:1009A00043F001032363236B03F001030193019BD5
:1009B0004FF4C053039302230493032306930A23A3
:1009C000079303A90D4800F0B1FE636B43F0800369
:1009D00063630295636C43F480436364636C03F464
:1009E00080430293029B2A460621432000F0F2FA3C
:1009F000432000F0FFFACDE700380240000002403B
:100A000008B500F29C41D0F8E00402F064FF08BD94
:100A100008B501EBC10300EB8303D3F86022D0F8E3
:100A2000E00403F02BF808BD08B501EBC10300EBAF
:100A300083031A6AD0F8E00403F086F808BD08B50D
:100A4000D0F8E00402F0C5FF08BD10B50446C37934
:100A5000022B09D10121D4F8E00402F09BFFD4F865
:100A6000E00402F064FF10BDFFF785FEF2E708B571
:100A7000D0F8E00402F091FF08BD08B5D0F8E0041A
:100A800002F09AFF08BD08B5D0F8E00402F0C9FFF3
:100A900008BD08B5D0F8E00402F0ACFF08BD08B509
:100AA000D0F8E00402F0D4FF08BD08B5D0F8E004A7
:100AB00002F0D0FF08BD000010B503461548C0F88D
:100AC000E034C3F8C8024FF0A0430360042303716D
:100AD0000023C3738371C372022242728372C27194
:100AE0008373037300F07DFF80B90A4C8021204698
:100AF00001F042FD40220021204601F017FD802236
:100B00000121204601F012FD002010BDFFF733FE49
:100B1000EBE700BF9803002008B5D0F8C80200F04A
:100B2000E1FFFFF723FF08BD08B594461A46634668
:100B3000D0F8C80201F0B5F8FFF718FF08BD08B5F6
:100B4000D0F8C80201F0F3F8FFF710FF08BD08B5B0
:100B5000D0F8C80201F076F9FFF708FF08BD08B524
:100B6000D0F8C80201F0B1F9FFF700FF08BDD0F8D6
:100B7000C83211F0800F08D101F07F0101EBC101F3
:100B800003EB810393F85602704701F07F0101EBFC
:100B9000C10103EB8103987D704708B5D0F8C80206
:100BA00001F06CF8FFF7E2FE08BD08B5D0F8C80206
:100BB00001F023F9FFF7DAFE08BD08B5D0F8C80246
:100BC00001F0EDF8FFF7D2FE08BD08B5D0F8C80275
:100BD00001F00AF908BD00000048704778010020C4
:100BE0007047000012230B8000487047200000204F
:100BF00004230B80004870471C0000200023934210
:100C00001ED200B510E00CF1370C01F813C0000142
:100C10004FEA430C0CF1010C4FF0000E01F80CE010
:100C20000133DBB2934209D24FEA107CB0F1204F7E
:100C3000E9D20CF1300C01F813C0E8E75DF804FBD1
:100C40007047000038B50B4BD3F8100AD3F8144A9C
:100C5000D3F8183AC01800D138BD074D08222946EC
:100C6000FFF7CCFF042205F110012046FFF7C6FF75
:100C7000F2E700BF0070FF1F0200002008B51A2332
:100C80000B80FFF7DFFF014808BD00BF0000002018
:100C900010B50A46034C2146034803F05DFB20468D
:100CA00010BD00BF7C0800201C4A000810B50A4691
:100CB000034C2146034803F04FFB204610BD00BF04
:100CC0007C0800202C4A000810B50A46034C214637
:100CD000034803F041FB204610BD00BF7C08002004
:100CE000384A000810B50A46034C2146034803F071
:100CF00033FB204610BD00BF7C080020484A000896
:100D00000020014B187070472D010020202803D0CF
:100D1000212814D0002070470B784A7843EA022338
:100D20008A7843EA0243CA7843EA02630C4A1360B2
:100D30000B7913714B7953718B799371EAE7084BF7
:100D40001A780A705A784A709A788A70DA78CA7073
:100D50001A790A715A794A719B798B71DAE700BF67
:100D6000640000200020704710B5074C002207499E
:100D7000204603F086FD0649204603F090FD054B12
:100D800001221A70002010BD7C0E00207C0A002079
:100D90007C0C00202D01002010B5094C0A8801466A
:100DA000204603F06EFD204603F085FD05492046F0
:100DB00003F075FD204603F099FD002010BD00BF33
:100DC0007C0E00207C0C00200A4BD3F8BC327BB197
:100DD000D3F814320BB10120704710B5054C0A4608
:100DE0000146204603F04DFD204603F064FD10BD92
:100DF000032070477C0E002010B5094C00220949E1
:100E0000204602F021FD0849204602F034FD074942
:100E1000204603F02BFD204602F047FD10BD00BF29
:100E20007C0E002034000020CC0000205000002068
:100E300008B50C210148FFF7C7FF08BD6C00002072
:100E4000054BD3F8882042F47002C3F888204FF095
:100E500000629A60704700BF00ED00E0704700003C
:100E600010B504460E4B1A784FF47A73B3FBF2F3C5
:100E70000C4A1068B0FBF3F000F0C0F868B90F2C12
:100E800001D901200AE0002221464FF0FF3000F096
:100E9000A1F8054B1C60002000E0012010BD00BF40
:100EA000800000207C0000208400002008B50B4B4F
:100EB0001A6842F400721A601A6842F480621A607A
:100EC0001A6842F480721A60032000F071F8002062
:100ED000FFF7C6FFFFF7C2FF002008BD003C02403D
:100EE000034A1168034B1B780B441360704700BF23
:100EF0005811002080000020014B1868704700BF87
:100F00005811002038B50446FFF7F6FF0546B4F146
:100F1000FF3F02D0044B1B781C44FFF7EDFF401B42
:100F2000A042FAD338BD00BF80000020002807DBB4
:100F300000F01F02400901239340024A42F820308A
:100F4000704700BF00E100E0002808DB0901C9B2DA
:100F500000F1604000F5614080F80013704700F038
:100F60000F000901C9B2014B1954704714ED00E09C
:100F700000B500F00700C0F1070CBCF1040F28BF5A
:100F80004FF0040C031D062B0FD9C31E4FF0FF3E7C
:100F90000EFA0CF021EA000199400EFA03FE22EA53
:100FA0000E0241EA02005DF804FB0023EEE70000B8
:100FB000074AD36823F4E0631B041B0C000200F40F
:100FC000E060034343F0BF6343F40033D3607047F2
:100FD00000ED00E010B50446054BD868C0F30220D0
:100FE000FFF7C6FF01462046FFF7AEFF10BD00BF6A
:100FF00000ED00E008B5FFF799FF08BD0138B0F13A
:10100000807F0BD24FF0E0235861054AF02182F82F
:1010100023100020986107221A6170470120704751
:1010200000ED00E0002800F0E08170B582B00446D9
:10103000036813F0010F3BD09F4B9B6803F00C0338
:10104000042B2CD09C4B9B6803F00C03082B21D065
:101050006368B3F5803F4FD0B3F5A02F52D0964BC5
:101060001A6822F480321A601A6822F480221A6008
:101070006368002B50D0FFF73FFF05468E4B1B687F
:1010800013F4003F14D1FFF737FF401B6428F5D954
:101090000320B1E1884B5B6813F4800FD8D0864BF6
:1010A0001B6813F4003F03D06368002B00F09F819E
:1010B000236813F0020F54D07F4B9B6813F00C0F82
:1010C0003ED07D4B9B6803F00C03082B33D0E368C4
:1010D000002B68D0794B01221A60FFF70DFF0546FF
:1010E000754B1B6813F0020F54D1FFF705FF401B2F
:1010F0000228F5D903207FE16F4A136843F4803357
:101100001360B5E76C4B1A6842F480221A601A68C3
:1011100042F480321A60ABE7FFF7EEFE0546664BFD
:101120001B6813F4003FC3D0FFF7E6FE401B6428A2
:10113000F5D9032060E1604B5B6813F4800FC6D1E2
:101140005D4B1B6813F0020F03D0E368012B40F0E6
:101150005081594A136823F0F803216943EAC10317
:101160001360236813F0080F42D063696BB3534BCD
:101170000122C3F8802EFFF7BFFE05464E4B5B6F82
:1011800013F0020F34D1FFF7B7FE401B0228F5D948
:10119000032031E1484A136823F0F803216943EA48
:1011A000C1031360DDE7454B00221A60FFF7A4FE80
:1011B0000546414B1B6813F0020FD2D0FFF79CFE8F
:1011C000401B0228F5D9032016E13C4B0022C3F84E
:1011D000802EFFF791FE0546374B5B6F13F0020F31
:1011E00006D0FFF789FE401B0228F5D9032003E152
:1011F000236813F0040F77D02F4B1B6C13F0805F24
:1012000033D1002301932C4B1A6C42F080521A64A4
:101210001B6C03F080530193019B0125284B1B6835
:1012200013F4807F23D0A368012B34D0052B38D052
:10123000214B1A6F22F001021A671A6F22F0040282
:101240001A67A368002B3DD0FFF756FE06461A4BDF
:101250001B6F13F0020F46D1FFF74EFE801B41F2C9
:1012600088339842F3D90320C6E00025D6E7144A14
:10127000136843F480731360FFF73EFE0646104B7D
:101280001B6813F4807FCED1FFF736FE801B022847
:10129000F5D90320B0E0084A136F43F00103136748
:1012A000CFE7054B1A6F42F004021A671A6F42F03B
:1012B00001021A67C5E700BF00380240000047423C
:1012C00000700040FFF718FE0646524B1B6F13F0EC
:1012D000020F08D0FFF710FE801B41F288339842BE
:1012E000F3D9032088E0EDB9A369002B00F08380D7
:1012F000484A926802F00C02082A51D0022B17D0FB
:10130000454B00221A66FFF7F7FD0446414B1B6868
:1013100013F0007F42D0FFF7EFFD001B0228F5D944
:10132000032069E03B4A136C23F080531364DBE72E
:10133000394B00221A66FFF7DFFD0546354B1B6867
:1013400013F0007F06D0FFF7D7FD401B0228F5D928
:10135000032051E0E369226A1343626A43EA82137D
:10136000A26A5208013A43EA0243E26A43EA02638C
:10137000284A5360284B01221A66FFF7BDFD044638
:10138000244B1B6813F0007F06D1FFF7B5FD001B4F
:101390000228F5D903202FE000202DE000202BE0CB
:1013A000012B2BD01B4B5B6803F48001E269914257
:1013B00026D103F03F02216A8A4223D1616A47F6AF
:1013C000C0721A40B2EB811F1ED103F44031A26AF1
:1013D0005208013AB1EB024F18D103F07063E26A90
:1013E000B3EB026F14D1002006E00120704701200A
:1013F00002E0012000E0002002B070BD0120FBE708
:101400000120F9E70120F7E70120F5E70120F3E7E4
:101410000120F1E7003802400000474208B5264BA2
:101420009B6803F00C03042B41D0082B41D1224BC5
:101430005A6802F03F025B6813F4800F12D01E4B13
:101440005968C1F388111D480023A1FB0001FEF774
:10145000E5FF194B5B68C3F3014301335B00B0FB4D
:10146000F3F027E0144B5868C0F388104FEA401C93
:10147000BCEB000C6EEB0E0E4FEA8E1343EA9C633E
:101480004FEA8C11B1EB0C0163EB0E03DB0043EA76
:101490005173C90011EB000C43F1000399020023C2
:1014A0004FEA8C2041EA9C51FEF7B8FFD1E7034890
:1014B00000E0034808BD00BF0038024040787D01CD
:1014C0000024F400002800F09B8070B50D4604460F
:1014D0004F4B1B6803F007038B4208D2CBB24C4A38
:1014E0001370136803F007038B4240F08B8023686E
:1014F00013F0020F17D013F0040F04D0454A93687D
:1015000043F4E0539360236813F0080F04D0414A7A
:10151000936843F4604393603E4A936823F0F0037A
:10152000A1680B439360236813F0010F32D0636806
:10153000012B21D09A1E012A25D9364A126812F0B1
:10154000020F61D033498A6822F0030213438B6093
:10155000FFF7D2FC06462F4B9B6803F00C03626832
:10156000B3EB820F16D0FFF7C7FC801B41F2883324
:101570009842F0D9032042E0264A126812F4003F54
:10158000E0D101203BE0234A126812F0007FD9D15C
:10159000012034E01E4B1B6803F00703AB4207D960
:1015A000EAB21B4B1A701B6803F00703AB422DD144
:1015B000236813F0040F06D0164A936823F4E0530F
:1015C000E1680B439360236813F0080F07D0114ABA
:1015D000936823F46043216943EAC1039360FFF7F2
:1015E0001DFF0C4B9B68C3F303130B4AD35CD8401D
:1015F0000A4B18600A4B1868FFF732FC002070BDD8
:10160000012070470120FAE70120F8E70120F6E702
:10161000003C024000380240644A00087C00002080
:1016200084000020014B1868704700BF7C00002038
:1016300008B5FFF7F7FF044B9B68C3F38223034A07
:10164000D35CD84008BD00BF003802405C4A0008A7
:1016500008B5FFF7E7FF044B9B68C3F34233034A27
:10166000D35CD84008BD00BF003802405C4A000887
:1016700070B50446866DFFF73FFC94F83530DBB259
:10168000022B06D080236365002384F834300120C8
:1016900070BD05462268136823F0160313602268A4
:1016A000536923F080035361236CE3B1226813680C
:1016B00023F0080313602268136823F0010313600A
:1016C00023681B6813F0010F11D0FFF715FC431BB3
:1016D000052BF5D920236365032084F8350000230A
:1016E00084F83430D4E7A36C002BDFD1E3E7E26D5C
:1016F0003F239340B360012384F83530002084F801
:101700003400C5E790F83530DBB2022B03D08023DC
:10171000436501207047052380F83530026813685F
:1017200023F00103136000207047000000230F2BFB
:1017300000F2D78070B582B065E085684FEA430E4D
:10174000032404FA0EF425EA0405CC6804FA0EF426
:101750002C438460446824EA02044A68C2F30012FD
:101760009A40224342605CE0DC08083450F82420B0
:1017700003F00705AD004FF00F0E0EFA05FE22EA4A
:101780000E0E0A69AA4042EA0E0240F824205CE0EC
:10179000042200E0002202FA0EF22A430234514DE4
:1017A00045F82420504A94686FEA0C0224EA0C059C
:1017B0004E6816F4801F01D04CEA04054A4CA5601F
:1017C000E46802EA04054E6816F4001F01D04CEAF2
:1017D0000405454CE560646802EA04054E6816F4A9
:1017E000003F01D04CEA04053F4C6560246822406C
:1017F0004D6815F4803F01D04CEA04023A4C226057
:1018000001330F2B6BD801229A400C6804EA020CBA
:1018100032EA0404F4D14C6804F00304013C012CC6
:101820008BD94A6802F00302032A09D0C4685D001C
:101830000322AA4024EA02048A68AA402243C26022
:101840004A6802F00302022A8ED004684FEA430E6F
:10185000032202FA0EF224EA02044A6802F00302AA
:1018600002FA0EF2224302604A6812F4403FC7D0E7
:10187000002201921D4A546C44F480445464526C1A
:1018800002F480420192019A9C08A51C154A52F864
:10189000255003F0030E4FEA8E0E0F2202FA0EF2CD
:1018A00025EA0205124A90423FF474AF02F58062C5
:1018B00090420ED002F5806290420CD002F5806218
:1018C00090420AD002F5806290423FF461AF072255
:1018D00061E701225FE702225DE703225BE702B0D6
:1018E00070BD704700380140003C014000380240A4
:1018F000000002400AB181617047090481617047AC
:10190000436901EA030221EA030141EA02418161DC
:1019100070472DE9F04383B0D0F8008001EBC1039C
:1019200000EB83039A6A5B6A9A4254D807460C46D6
:101930009B1A01EBC10200EB8202D2699A4200D3EA
:101940001A4602F103094FEA990915E006F1030965
:101950004FEA9909BB7904EBC40507EB8505296AB1
:101960000093B3B2E2B2404601F045F92B6A33442A
:101970002B62AB6A3344AB6208EB441303F510638C
:101980009B699BB24B4512D304EBC40307EB830363
:101990009A6A5B6A9A420AD24BB19B1A04EBC40260
:1019A00007EB8202D6699E42D0D31E46CEE704EBF7
:1019B000C40307EB83077A6ABB6A9A420FD804F024
:1019C0000F040122A240D8F8343823EA0203C8F8F1
:1019D0003438002000E0012003B0BDE8F08300208F
:1019E000FAE730B583B000287AD00446056890F84D
:1019F0009534C3B1032384F89534B5F1A04F17D0C3
:101A0000206800F0ABFE237C8DF80030231D0ECB48
:101A1000206800F0E2FD70B1022384F895340125BE
:101A2000284603B030BD80F89434FEF7A7FFE1E705
:101A30000023A371E4E70021206801F0F8FA0246D0
:101A400008B9034617E0022384F895340125E7E737
:101A500003EBC30104EB8101012048750B75CB85B5
:101A600000200876C861086203EBC30104EB810122
:101A700048620133DBB220799842E9D816E002EBE4
:101A8000C20304EB8303002183F8551283F8542228
:101A900083F85812C3F85C12C3F8601202EBC20359
:101AA00004EB8303C3F864120132D2B29042E6D849
:101AB000237C8DF80030231D0ECB206800F0A4FE9F
:101AC000054620B1022384F895340125A8E70023B8
:101AD0006374012384F89534206801F067FA9FE766
:101AE00001259DE7036890F89424012A1AD010B5C7
:101AF0000446012280F89424DA6812F0400F02D0E4
:101B0000427B012A09D0206800F022FE206801F003
:101B10003FFA002084F8940410BD9A6B42F480329E
:101B20009A63F0E70220704770B504460D460068DE
:101B3000066C00EB411303F530639A68A179012923
:101B400011D038498E4256D03DB905EBC50304EBA0
:101B50008303D3F86432002B5ED0E9B22046FEF74F
:101B600057FF002070BD12F0080F09D02E498E4299
:101B7000F7D912F4004FF4D04FF400429A60F0E726
:101B800012F0200F02D020229A60EAE712F0280F0C
:101B9000E7D125498E4206D912F4004F03D04FF405
:101BA00000429A60DDE705EBC50204EB8202D2F841
:101BB00074121B69C3F31203CB1AC2F868327DB9E1
:101BC00005EBC50204EB8202D2F864226AB105EB90
:101BD000C50204EB8202D2F860121944C2F8601206
:101BE000E9B22046FEF714FFBBE704F29C42012154
:101BF00001F05EFAF4E712F4004F03D04FF4004214
:101C00009A60AEE712F0200F01D020229A60E9B26C
:101C10002046FEF7FDFEA4E704F29C42002101F0FD
:101C200047FA9AE70A31544F0A30544F38B5044600
:101C300003681D6C03EB4113D3F8081B0E4A954251
:101C400007D903F5306311F4004F02D04FF400427E
:101C50009A602046FEF7D4FE074B9D4202D9A37935
:101C6000012B01D0002038BD04F29C4201212068E4
:101C700001F01EFAF6E700BF0A30544F90F8943492
:101C8000012B0CD010B50446012380F89434417424
:101C9000006801F06DF9002084F8940410BD022062
:101CA000704738B505468C4611F0800F2BD101F0F6
:101CB0000F0E0EEBCE04A40004F514740444211D91
:101CC0000EEBCE0E00EB8E0E00208EF855020CF0BF
:101CD0000F0C81F800C0C2F30A028A600B714A78C7
:101CE0000AB1A1F81AC0022B1CD095F89434012B2C
:101CF0001BD0012385F89434286800F060FE002092
:101D000085F8940438BD01F00F0000EBC001890094
:101D100010312944043100EBC00005EB80000124A0
:101D20004475D4E700234B71DFE70220EAE710B5E2
:101D300004460A4611F0800F20D101F00F0000EB9D
:101D4000C0039B0003F514732344191D00EBC0006E
:101D500004EB8000002380F8553202F00F020A7075
:101D600094F89434012B18D0012384F8943420681B
:101D700000F072FE002084F8940410BD01F00F0002
:101D800000EBC0039B0010332344191D00EBC0007F
:101D900004EB800001234375DFE70220EDE710B577
:101DA000144601F00F0C0CEBCC01890001F5147105
:101DB000014404310CEBCC0E00EB8E0ECEF8602209
:101DC000CEF864320023CEF868328EF855328EF8A1
:101DD00054C28279012A04D0006800F023FF002059
:101DE00010BDCEF87042F7E701F00F0101EBC10121
:101DF00000EB8100D0F86802704710B5144601F07E
:101E00000F0C0CEBCC0189001031014404310CEBB8
:101E1000CC0E00EB8E0ECEF82020CEF8243000231E
:101E2000CEF8283001238EF815308EF814C0827950
:101E30009A4204D0006800F0F5FE002010BDCEF8F4
:101E40003040F7E738B501F00F050279AA4238D3E0
:101E500004460B4611F0800F1FD101EBC101890030
:101E600001F514710144043103EBC30300EB830358
:101E7000002283F8552201238B700D7094F894345E
:101E8000012B20D0012384F89434206801F015F848
:101E900085B1002084F8940438BD05EBC5018900A4
:101EA00010310144043105EBC50300EB830301222B
:101EB0005A75E0E704F29C42A179206801F0F8F835
:101EC000E7E70120E8E70220E6E701F00F030279E7
:101ED0009A4230D310B5044611F0800F1ED103EBA7
:101EE000C301890001F514710144043103EBC302FD
:101EF00000EB8202002082F8550200228A700B70EB
:101F000094F89434012B18D0012384F89434206879
:101F100001F000F8002084F8940410BD03EBC30125
:101F2000890010310144043103EBC30200EB82024B
:101F300001205075E1E7012070470220EDE708B568
:101F400011F0800F0CD101F00F0101EBC1018900EC
:101F500001F5147101440431006800F0EDFD08BD85
:101F600001F00F0101EBC10189001031014404317E
:101F7000F2E72DE9F04F83B004460568284601F0EA
:101F800052F810B103B0BDE8F08F0646206801F0AA
:101F90001BF80028F6D005F50067BB68C3F30D23D6
:101FA000C4F8D434206801F00FF810F0020F04D008
:101FB0002268536903F002035361206801F004F8BA
:101FC00010F0100F13D02268936923F0100393616F
:101FD000D5F8208008F00F09C8F34343022B4BD0FB
:101FE000062B6FD02268936943F010039361206839
:101FF00000F0EAFF10F4002F76D1206800F0E4FF33
:1020000010F4802F40F0E080206800F0DDFF002811
:10201000C0F26181206800F0D7FF10F4006F09D092
:10202000BB6813F0010F40F06E812268536903F41E
:1020300000635361206800F0C7FF10F4805F40F038
:102040006681206800F0C0FF10F4005F40F0B381AB
:10205000206800F0B9FF10F0080F40F0C48120683C
:1020600000F0B2FF10F0800F00F0D781AB6923F0D1
:102070008003AB610126C0E147F6F07318EA030F55
:10208000B0D04FEA181A4FEAC903019309EBC90B04
:1020900004EB8B0BC8F30A12DBF86012284600F041
:1020A000E9FEDBF86032CAF30A0A5344CBF8603227
:1020B000DBF86832019A4A4404EB82025344C2F8C6
:1020C00068328FE7082204F29C41284600F0D2FED5
:1020D00009EBC90304EB8303D3F86822C8F30A1899
:1020E0004244C3F868227DE7206800F071FF804613
:1020F000B14635E005EB49130122C3F8082B4946E8
:102100002046FFF711FD3CE005EB49130822C3F818
:10211000082B49462046FFF789FD35E009EBC90346
:1021200004EB830393F85732012B41D005EB49139D
:102130000222C3F8082B1AF0200F04D005EB491334
:102140002022C3F8082B1AF4005F05D005EB4913D1
:102150004FF40052C3F8082B09F101094FEA58085F
:10216000B8F1000F3FF449AF18F0010FF4D05FFA57
:1021700089FB5946206800F03BFF824610F0010FB2
:10218000B8D11AF0080FBFD11AF0100F04D005EB28
:1021900049131022C3F8082B1AF0020FCBD06B6939
:1021A00013F0800FBAD07B6843F480637B60B5E79F
:1021B00009EBC90304EB8303002283F85722594635
:1021C0002046FEF760FCB1E7206800F009FF80467A
:1021D000B14625E059462046FEF726FC1AF0080FC6
:1021E00004D005EB49130822C3F808291AF0100F90
:1021F00004D005EB49131022C3F808291AF0400F48
:1022000004D005EB49134022C3F808291AF0020F45
:1022100040D11AF0800F59D109F101094FEA58084D
:10222000B8F1000F3FF4F0AE18F0010FF4D05FFAF0
:1022300089FB5946206800F0E4FE824610F0010F49
:10224000CCD009F00F02012101FA02F27B6B23EAE4
:1022500002037B6305EB4913C3F80819A3798B428A
:10226000B8D109EBC90304EB83031A6AD9690A449C
:102270001A62B9F1000FADD109EBC90304EB830376
:102280005B6A002BA6D104F29C420121206800F079
:102290000FFF9FE74946284600F066FA09EBC9039D
:1022A00004EB8303DB7D012B05D005EB49130222F0
:1022B000C3F80829ADE709EBC90304EB8303002247
:1022C000DA7559462046FEF7E4FBEEE7494620461C
:1022D000FFF71FFBA0E77B6823F001037B6094F806
:1022E000CC34012B08D02046FEF7C7FB2268536987
:1022F00003F0004353618DE6002184F8CC1420469E
:1023000000F03EF9F2E72046FEF7B1FB8DE67B6870
:1023100023F001037B601021206800F025FA1AE009
:1023200005EB46134FF67F31C3F80819D3F800299F
:1023300022F40012C3F80029C3F8081BD3F8002BBD
:1023400022F40012C3F8002BD3F8002B42F00062F5
:10235000C3F8002B01362379B342E1D8FB6943F07F
:102360000113FB61E37BDBB1D7F8843043F00B034F
:10237000C7F884307B6C43F00B037B64D5F80038DE
:1023800023F4FE63C5F8003804F29C42A17920686A
:1023900000F08EFE2268536903F48053536150E6C7
:1023A0007B6943F4005343F02B037B613B6943F0AB
:1023B0000B033B61E2E7206800F06AFE206800F052
:1023C000EDFAE0712668FFF72DF90146E279304613
:1023D00000F04CF92046FEF738FB2268536903F4FD
:1023E0000053536134E62046FEF729FB2268536907
:1023F00003F00803536132E601362379B3420CD966
:1024000006EBC60304EB830393F85732012BF3D199
:10241000F1B22046FFF793FDEEE7206800F0D4FD0F
:1024200010F4801F25D1206800F0CEFD10F4001FAD
:1024300058D0012326E001362379B3421BD905EB9E
:102440004613D3F8002906EBC60304EB83031B7E77
:10245000012BF0D1002AEEDA06EBC60304EB83036E
:102460000122DA7566F07F01C9B22046FFF767FDE9
:10247000E1E70126E0E72268536903F48013536122
:10248000D1E7013322799A4227D905EB4312D2F8DA
:10249000001B03EBC30204EB820292F85822012ACC
:1024A000EFD10029EDDAD4F8D42482EA114212F0F7
:1024B000010FE6D103EBC30204EB8202012182F893
:1024C0005712AA6942F08002AA616A6912F0800F6D
:1024D000D7D17B6843F400737B602268536903F4AF
:1024E00000135361206800F06FFD10F0804F10D191
:1024F000206800F069FD10F0040F3FF443AD23683D
:102500005D6815F0040F0DD1226853682B435360AA
:1025100038E52046FEF7C3FA2268536903F080438A
:102520005361E5E72046FEF7C0FAEDE710B4046812
:10253000606A31B940EA0240A06200205DF8044BB5
:1025400070478C46A36A00EB1340002308E003F1B8
:10255000400104EB8101496800EB11400133DBB21B
:102560000CF1FF318B42F2D340EA02400CF13F0103
:1025700004EB81046060E0E7036859620020704763
:10258000704782B000230193019B01330193019BAB
:10259000B3F1706F1CD80369002BF5DA0A2301939D
:1025A00002E0019B013B0193019B002BF9D10369E0
:1025B00043F001030361019B01330193019BB3F1DC
:1025C000706F08D8036913F0010FF4D1002000E008
:1025D000032002B070470320FBE784B010B5044627
:1025E00003A880E80E009DF81130012B21D1A36BC8
:1025F00023F48033A363E36823F4840323F04003CC
:10260000E360E36823F44013E3609DF81830012B86
:102610000AD02046FFF7B5FF9DF80E30012B1CD0E5
:10262000BDE8104004B07047E36843F48013E360F2
:10263000EFE7E36843F04003E3602046FFF7A1FFC4
:102640009DF8153023B9A36B43F48033A363E3E70C
:10265000A36B23F48033A363DEE7A36843F0060390
:10266000A360A36843F02003A360D9E7022A0AD03D
:102670000922C36823F47053C360C36843EA82230A
:10268000C36000207047234B0B44234A93422FD949
:10269000224B0B44224A93422CD9A1F57403A3F593
:1026A0001053204A934227D9A1F18373A3F5E7433E
:1026B0001D4A934222D31D4B0B441D4A93421FD9FE
:1026C0001C4B0B441C4A93421CD31C4B0B441C4A0E
:1026D000934219D3A1F1B773A3F55853194A934202
:1026E00014D3194B0B44194A934211D20722C0E765
:1026F0000F22BEE70E22BCE70D22BAE70C22B8E794
:102700000B22B6E70A22B4E70922B2E70822B0E7B3
:102710000622AEE7405327FFFF340C00401E1BFF8C
:102720003F420F007F4F120020D6130060B6E5FE37
:102730005FE3160000D3CEFE40771B00C05BB3FE04
:10274000C091210020753800E05459FEE09C410002
:10275000836843F00103836000207047836823F09F
:10276000010383600020704782B000230193019B26
:1027700001330193019BB3F1706F15D80369002BEE
:10278000F5DA00230193890141F020010161019BE9
:1027900001330193019BB3F1706F08D8036913F003
:1027A000200FF4D1002000E0032002B07047032086
:1027B000FBE782B000230193019B01330193019B4E
:1027C000B3F1706F13D80369002BF5DA002301937E
:1027D00010230361019B01330193019BB3F1706FDF
:1027E00008D8036913F0100FF4D1002000E0032093
:1027F00002B070470320FBE7D0F800381943C0F857
:10280000001800207047000084B0F8B5044607A8FF
:1028100080E80E00002306E003F1400204EB820290
:102820000021516001330E2BF6D99DF8266006BBBE
:10283000D4F8043843F00203C4F80438A36B43F41B
:102840000013A363A36B23F40023A363A36B23F4FC
:102850008023A3630023C4F8003E9DF82130012BA0
:1028600015D19DF81F306BB900212046FFF7C4FF3A
:1028700011E0A36B23F40013A363A36B43F40023C1
:10288000A363E7E701212046FFF7B6FF03E003213A
:102890002046FFF7B1FF10212046FFF765FF0546F0
:1028A00000B101252046FFF784FF00B1012504F5A2
:1028B000006C0023CCF81030CCF81430CCF81C306D
:1028C0000AE0CBB94FF00060C2F8000900220A61AB
:1028D0004FF67F328A6001339DF81C10994210D95F
:1028E00004EB431202F51061D2F800090028E8DB7E
:1028F0000020C2F80009E9E74FF09040C2F8000953
:10290000E4E700230AE0BBB14FF09047C2F8007B38
:10291000002202614FF67F3282600133994210D962
:1029200004EB431202F53060D2F8007B002FEADBA3
:102930000027C2F8007BEBE74FF00067C2F8007B8E
:10294000E6E7DCF8103023F48073CCF81030002375
:10295000A3616FF0804363619DF81E301BB9A369CA
:1029600043F01003A361A2690B4B1343A3619DF8CD
:1029700022301BB1A36943F00803A361012E04D0E8
:102980002846BDE8F84004B07047A36943F080438F
:1029900043F00403A361F3E700383C80D0F8083823
:1029A00013F0060307D0022B07D0062B01D00F200F
:1029B000704702207047002070470220704710B512
:1029C00091F800C04B78012B23D000F5006ED0F8B1
:1029D0001C380CF00F040122A24043EA0243C0F865
:1029E0001C3800EB4C10D0F8003B13F4004F0ED114
:1029F000D0F8003B8A68C2F30A02097942EA8142B0
:102A0000134343F0805343F40043C0F8003B0020DD
:102A100010BDD0F81C280CF00F0E03FA0EF39BB279
:102A20001343C0F81C3800EB4C10D0F8003913F4F5
:102A3000004FECD1D0F800398A68C2F30A02097954
:102A400042EA814242EA8C52134343F0805343F4FA
:102A50000043C0F80039DAE730B40B784A78012A2D
:102A600026D000EB4313D3F8002B002A52DBD0F81A
:102A70003C480A7802F00F024FF0010C0CFA02F207
:102A800024EA0242C0F83C28D0F81C28097801F05A
:102A90000F010CFA01FC22EA0C42C0F81C28D3F802
:102AA000001B234A0A40C3F8002B002030BC7047AB
:102AB00000EB4313D3F80029002A1EDBD0F83C5862
:102AC0000A7802F00F02012404FA02F292B225EA17
:102AD0000202C0F83C28D0F81C28097801F00F0148
:102AE0008C40A4B222EA0402C0F81C28D3F80019D2
:102AF000104A0A40C3F80029D7E7D3F8002942F06A
:102B00000062C3F80029D3F8002942F08042C3F8DC
:102B10000029D3E7D3F8002B42F00062C3F8002B62
:102B2000D3F8002B42F08042C3F8002B9FE700BF90
:102B30000078F3EF007833EC10B483B00246002342
:102B40000193487801280BD00B7802EB4313D3F89C
:102B5000000B00282DDB002003B05DF8044B70470C
:102B60000B7802EB4313D3F80049002C01DB002063
:102B7000F2E7D3F8004944F00064C3F800490B7849
:102B800002EB4313D3F8004944F08044C3F80049F2
:102B9000019B01330193019C42F210739C42DBD8EC
:102BA0000B7802EB4313D3F80039002BF0DB002045
:102BB000D2E7D3F8000B40F00060C3F8000B0B78AD
:102BC00002EB4313D3F8000B40F08040C3F8000B36
:102BD000019B01330193019842F21073984208D887
:102BE0000B7802EB4313D3F8003B002BF0DB002003
:102BF000B2E70120B0E710B59DF8084084B903336F
:102C00004FEA930E4FF0000C08E000EB023303F59F
:102C1000805351F8044B1C600CF1010CF445F4D3C3
:102C2000002010BDF0B583B00C784B78012B2FD06D
:102C300000EB441C0CF530631D69ED0CED041D61C7
:102C40001D6925F0FF5525F4C0151D61002C40F0CD
:102C5000D2800C690CB18C680C618C680C621D69A7
:102C6000C4F312042C431C611C6944F400241C614D
:102C7000012A00F0E3800B79012B00F0E580DCF8FD
:102C8000003B43F00443CCF8003B002003B0F0BD10
:102C90000B6983BB00EB4413D3F8105925F0FF55A3
:102CA00025F4C015C3F81059D3F8105945F4002580
:102CB000C3F81059D3F81059ED0CED04C3F81059AE
:102CC000012A56D000EB4414D4F8003943F00443F1
:102CD000C4F800390B79012B74D00B69002BD4D0C8
:102CE000D0F83438097801F00F0101228A401343EB
:102CF000C0F83438C9E700EB441303F510631D69CD
:102D0000ED0CED041D611D6925F0FF5525F4C0157E
:102D10001D6184B90E698D68AE4200D90D611D69CF
:102D200045F400251D611D690E69C6F3120C45EAC4
:102D30000C051D61C4E70D698E683544013DB5FB86
:102D4000F6F51E691FFA85FC494F07EAC54535436C
:102D50001D610D79012DE6D11D6925F0C0451D616C
:102D60001D694FEA4C7C0CF0C04C45EA0C051D6116
:102D7000D9E7CB691BB100EB4412C2F814390B79C7
:102D8000012B08D000EB4414D4F8003943F004437D
:102D9000C4F8003979E7D0F8083813F4807F08D1F7
:102DA00000EB4412D2F8003943F00053C2F8003966
:102DB000E8E700EB4412D2F8003943F08053C2F840
:102DC0000039DFE7D0F8083813F4807F0CD1D4F84D
:102DD000003943F00053C4F8003900920B8A0A7896
:102DE000C968FFF708FF50E7D4F8003943F0805373
:102DF000C4F80039F1E70C6954B91C698D68C5F352
:102E000012052C431C611C6944F400241C612FE74B
:102E10008D682C44013CB4FBF5F4A4B204FB05F529
:102E20000D621D69124E06EAC4442C431C611C69E4
:102E30000D6AC5F312052C431C6119E7CA68002A04
:102E40003FF419AF5A6116E7D0F8083813F4807FC1
:102E500006D1DCF8003B43F00053CCF8003B0EE712
:102E6000DCF8003B43F08053CCF8003B07E700BFA1
:102E70000000F81F10B5844608464FEA920E02F093
:102E80000302002305E00CF58051096840F8041B9B
:102E900001337345F7D37AB10CF5805CDCF8004060
:102EA0000021CBB2DB0024FA03F300F8013B01312F
:102EB000013A92B2002AF4D110BD0B784A78012A67
:102EC00014D000EB4310D0F8002B002A06DB2BB106
:102ED000D0F8003B23F08043C0F8003BD0F8003B23
:102EE00043F40013C0F8003B0020704700EB431090
:102EF000D0F80029002A06DB2BB1D0F8003923F0E6
:102F00008043C0F80039D0F8003943F40013C0F80A
:102F10000039E9E70B784A78012A0ED000EB43101C
:102F2000D0F8003B23F40013C0F8003B0B79023BC0
:102F3000DBB2012B15D90020704700EB4310D0F80D
:102F4000003923F40013C0F800390B79023BDBB2DF
:102F5000012BF0D8D0F8003943F08053C0F8003985
:102F6000E9E7D0F8003B43F08053C0F8003BE2E7CC
:102F7000D0F8003823F4FE63C0F80038D0F80038E9
:102F8000090101F4FE610B43C0F8003800207047CE
:102F9000D0F8003E23F00303C0F8003ED0F8043818
:102FA00023F00203C0F8043800207047D0F8003E38
:102FB00023F00303C0F8003ED0F8043843F00203C6
:102FC000C0F804380020704742698069104070479B
:102FD000D0F8183800F50060C0691840000C704740
:102FE000D0F8183800F50060C069184080B270470A
:102FF00000EB4111D1F8082B00F50060406910404A
:103000007047D0F81028D0F8343801F00F0C23FAAC
:103010000CF3DB01DBB2134300EB411000F5106051
:10302000806818407047406900F00100704738B56B
:103030000546C36823F0C043C360012913D019BB00
:10304000C36843F08043C36000240A20FDF75AFFA1
:103050000A342846FFF7E7FF08B1C72CF5D9C82C7A
:1030600014D0002038BDC36843F00053C36000246F
:103070000A20FDF747FF0A342846FFF7D4FF01284E
:10308000EDD0C72CF4D9EAE70120EBE70120E9E70E
:10309000D0F8003923F4FF6323F00703C0F80039A8
:1030A000D0F8043843F48073C0F804380020704727
:1030B00010B4046C154B9C4203D9D0F8003B002B94
:1030C00016DB0024C0F8104BD0F8104B44F4002459
:1030D000C0F8104BD0F8104B44F01804C0F8104B57
:1030E000D0F8104B44F0C044C0F8104B012903D075
:1030F00000205DF8044B7047C0F8142BD0F8003B5B
:1031000043F08023C0F8003BF2E700BF0A30544F81
:10311000026802F10C0353E8003F23F490730C3271
:1031200042E800310029F3D1026802F1140353E8A8
:10313000003F23F00103143242E800310029F3D1AB
:10314000036B012B05D0202380F84230002303635A
:103150007047026802F10C0353E8003F23F01003AC
:103160000C3242E800310029F3D1ECE790F841300D
:10317000DBB2212B01D0022070478368B3F5805F5A
:1031800017D0036A5A1C02621A7803685A60C38C0B
:103190009BB2013B9BB2C3844BB90268D36823F056
:1031A0008003D3600268D36843F04003D3600020FB
:1031B00070470369002BE4D1036A1B880268C3F3DC
:1031C00008035360036A02330362E0E710B5044664
:1031D0000268136923F44053C1680B431361836889
:1031E00002691A4343691A43C3691A430168CB68E9
:1031F00023F4164323F00C031343CB600268536996
:1032000023F4407381690B4353610368314A93424D
:1032100006D002F58062934202D0FEF709FA01E07F
:10322000FEF716FAE369B3F5004F29D00021031821
:1032300049411B1841F10001C90041EA5371DB000B
:10324000181863684FEA83024FEA937341F1000153
:10325000FDF7E4F8204AA2FB00314909642303FB8F
:1032600011031B013233A2FB03235B0903F0F002BD
:1032700002EB011203F00F03216813448B6010BDB1
:103280000023021843EB0301121841F10001C900A9
:1032900041EA5271D200101841F10001626892189F
:1032A0005B41FDF7BBF80C4AA2FB003149096423DE
:1032B00003FB1103DB003233A2FB03235B095A003B
:1032C00002F4F87202EB011203F0070321681344C1
:1032D0008B60D4E7001001401F85EB512DE9F043CE
:1032E00083B005460E4617469946DDF828802B68C0
:1032F0001C6836EA04040CBF01240024BC4228D117
:10330000B8F1FF3FF3D0FDF7F7FDA0EB0900404512
:1033100023D8B8F1000F22D02B68DA6812F0040F1E
:10332000E5D0802EE3D0402EE1D01A6812F0080FCD
:10333000DDD0002401941A6801925B680193019B1F
:103340002846FFF7E5FE08236B6485F8404001201E
:1033500000E0002003B0BDE8F0830320FAE703207B
:10336000F8E7704760B310B5044690F8413013B3E6
:10337000242384F841302268D36823F40053D360B7
:103380002046FFF723FF2268136923F4904313615B
:103390002268536923F02A0353612268D36843F4F7
:1033A0000053D36000206064202384F8413084F807
:1033B0004230606310BD80F84030FFF7D2FFD7E79E
:1033C000012070472DE9F04182B01E4690F841304F
:1033D000DBB2202B56D104460D469046002955D02D
:1033E0000AB901204FE000234364212380F84130D3
:1033F000FDF782FD0746A4F82480A4F82680A36880
:10340000B3F5805F02D04FF0000814E023692BB3BE
:103410004FF000080FE0202384F84130032032E011
:1034200038F8023B2268C3F308035360E28C92B27F
:10343000013A92B2E284E38C9BB293B100963B4690
:10344000002280212046FFF749FF0028E3D1002D0C
:10345000E6D015F8012B23685A60E7E7A846002557
:10346000E9E700963B46002240212046FFF736FF61
:1034700018B9202384F8413005E0202384F8413036
:10348000032000E0022002B0BDE8F0810120FAE74D
:10349000704708B50168CA6822F04002CA6020225D
:1034A00080F84120FFF7F4FF002008BD7047704707
:1034B00008B5806B0023C385FFF7F9FF08BD70478F
:1034C00090F84230DBB2222B69D18368B3F5805F7C
:1034D0004FD0826AB3F5805F04D0002B56D10369C8
:1034E000002B53D103685B681370836A01338362D6
:1034F000C38D9BB2013B9BB2C385002B51D100B55C
:1035000083B00268D36823F02003D3600268D368D5
:1035100023F48073D3600268536923F0010353617D
:10352000202380F8423000234363036B012B33D107
:1035300000230363026802F10C0353E8003F23F009
:1035400010030C3242E800310029F3D103681A68F5
:1035500012F0100F06D0002201921A6801925B68E7
:103560000193019B818DFFF7AAFF002003B05DF856
:1035700004FB0269002AACD1826A03685B68C3F36A
:1035800008031380836A02338362B1E703685B68D0
:1035900003F07F031370A8E7FFF788FFE5E7022039
:1035A000704700207047000010B582B004460268E2
:1035B0001368D068516913F00F0F09D113F0200F71
:1035C0000CD010F0200F09D02046FFF779FF16E04D
:1035D00011F0010115D110F4907F12D1216B012956
:1035E00079D013F0800F03D010F0800F40F02181CC
:1035F00013F0400F03D010F0400F40F01E8102B0D6
:1036000010BD13F0010F06D010F4807F03D0626C60
:1036100042F00102626413F0040F04D019B1626C2D
:1036200042F00202626413F0020F04D019B1626C1E
:1036300042F00402626413F0080F07D010F0200F6C
:1036400000D119B1626C42F008026264626C002A17
:10365000D5D013F0200F02D010F0200F29D123680D
:103660005B6903F04003626C12F0080F00D163B392
:103670002046FFF74DFD23685B6913F0400F20D013
:10368000226802F1140353E8003F23F04003143290
:1036900042E800310029F3D1E36B73B1694A1A653E
:1036A000E06BFEF72FF80028A9D0E06B036D984778
:1036B000A5E72046FFF704FFD1E72046FFF7F7FE16
:1036C0009DE72046FFF7F3FE99E72046FFF7EFFE60
:1036D0000023636493E713F0100F82D010F0100FF3
:1036E0003FF47FAF00230193136801935368019364
:1036F000019B536913F0400F5FD0E26B13685B6866
:103700009BB2002B4AD0A18D994247D9E385D3695A
:10371000B3F5807F37D0226802F10C0353E8003FF5
:1037200023F480730C3242E800310029F3D122687F
:1037300002F1140353E8003F23F00103143242E87E
:1037400000310029F3D1226802F1140353E8003F4D
:1037500023F04003143242E800310029F3D1202342
:1037600084F8423000232363226802F10C0353E8FB
:10377000003F23F010030C3242E800310029F3D15E
:10378000E06BFDF775FF02236363A18DE38D9BB2B0
:10379000C91A89B22046FFF792FE30E7A18D9942FF
:1037A0007FF42DAFD369B3F5807F7FF428AF022378
:1037B00063632046FFF783FE21E7A18DE38D9BB273
:1037C000C91A89B2E38D9BB2002B3FF418AF0029D0
:1037D0003FF415AF226802F10C0353E8003F23F4D5
:1037E00090730C3242E800300028F3D1226802F1D5
:1037F000140353E8003F23F00103143242E8003081
:103800000028F3D1202384F8423000232363226868
:1038100002F10C0353E8003F23F010030C3242E89E
:1038200000300028F3D1022363632046FFF747FEF0
:10383000E5E62046FFF79AFCE1E62046FFF729FE81
:10384000DDE600BFB134000898B108B5034600209A
:10385000C3F8B802C3F8C402C3F8D00209B1C3F870
:10386000B412012183F89C121A701846FDF724F94E
:1038700008BD0320704710B582B00023ADF80630B4
:1038800089B10446C0F8B812CB6A23B10DF1060025
:103890009847C4F8D002D4F8D8320133C4F8D832EB
:1038A000002002B010BD0320FBE708B5FDF734F996
:1038B00008BD08B5D0F8B83213B11B68984708BDE9
:1038C0000020FCE708B5D0F8B8325B68984700B92B
:1038D00008BD0320FCE738B5044600F2AA252846B7
:1038E00000F0CEF90123C4F89432B4F8B032C4F831
:1038F000983294F8AA1201F01F03012B0DD0022B6D
:1039000010D02BB101F080012046FDF720F903E033
:103910002946204600F08AFB38BD2946204600F0A3
:10392000C0FBF9E72946204600F0FDFBF4E7F8B5B7
:103930000446012380F89C320023C0F8943243608F
:10394000C0F8A43280F8A032D0F8B832E3B15B6896
:10395000E3B1002198470746D0B940230022114621
:103960002046FDF7E1F8012684F863614025A4F8BC
:1039700060512B46002280212046FDF7D5F884F8BF
:10398000236025843846F8BD0027E6E70027E4E7F2
:103990000327E2E701740020704790F89C32DBB205
:1039A000042B04D090F89C32DBB280F89D320423C3
:1039B00080F89C320020704790F89C32DBB2042BD8
:1039C00001D00020704790F89D32DBB280F89C3225
:1039D000F7E708B590F89C32DBB2032B01D000204A
:1039E00008BDD0F8B832002BF9D0DB69002BF6D037
:1039F0009847F4E708B5D0F8D432AE3350F8232016
:103A00005AB190F89C32DBB2032B01D0002008BDE4
:103A1000136A23B198470020F9E70320F7E7002055
:103A2000F5E708B5D0F8D432AE3350F823205AB1B8
:103A300090F89C32DBB2032B01D0002008BD536A02
:103A400023B198470020F9E70320F7E70020F5E7C6
:103A50000020704708B5012380F89C32D0F8B832B6
:103A600023B15B680179984710B908BD0020FCE7D5
:103A70000320FAE7002070470020704738B504465D
:103A80000D46002946D1D0F89432032B01D00846C8
:103A900038BDD0F85831B0F86021934212D890F870
:103AA000AA3203F01F03012B1BD0022B20D00846A3
:103AB00094F89C32DBB2032B1FD0204600F09EFC12
:103AC0002846E5E79B1AC0F85831D0F86411114434
:103AD000C0F864119A4238BF1A4600F087FC2846A5
:103AE000D6E790F8AE12FFF7C5FF0028E5D1DFE773
:103AF00090F8AE12FFF7C0FFF7E700F1AE0354F8FD
:103B000023301A69002AD8D0C4F8D4021B69204691
:103B10009847D2E701F07F01FFF7AEFF90B994F824
:103B20009C32DBB2032BB3D100F1AE0354F8233047
:103B30009A69002AACD0C4F8D4029B692946204671
:103B40009847A5E70020A3E738B504460D460029AD
:103B50004CD1D0F89432022B07D094F8A00218B1BF
:103B6000002384F8A032284638BD8269038C9A422B
:103B70000ED89A421AD094F89C32DBB2032B29D08B
:103B800080212046FCF7E3FF204600F042FCE4E7FA
:103B9000D21A8261416A1944416200F00EFC00238E
:103BA0001A4619462046FDF708F8D6E742699342BF
:103BB000E1D8D0F898329A42DDD20022114600F0C6
:103BC000FCFB0021C4F898120B460A462046FCF77D
:103BD000F4FFC2E7D4F8B832DA68002AD0D0002265
:103BE000C4F8D422DB6820469847C9E741F0800139
:103BF000FFF742FF90B994F89C32DBB2032BB3D1AC
:103C000000F1AE0354F823305A69002AACD0C4F84E
:103C1000D4025B69294620469847A5E70020A3E720
:103C20000B88027813440B8003781844704742884D
:103C300003789A4218D930B583B004460D46ADF8E2
:103C400006306388BDF806209A420AD20DF10601BB
:103C5000FFF7E6FF4378052BF3D18378AB42F0D131
:103C600000E0002003B030BD002070470346002074
:103C700002E00130C0B201331A78002AF9D170474E
:103C80000B7803704B7843708B78CA7843EA022331
:103C900043800B794A7943EA022383808B79CA797E
:103CA00043EA0223C380704710B504468021FCF725
:103CB0004EFF00212046FCF74AFF10BD30B583B00F
:103CC00004460D460023ADF806304A88130A013B2E
:103CD000062B00F2AB80DFE803F0041F33A9A98DA7
:103CE0009A00D0F8B4321B680DF10601007C9847A9
:103CF000EA88002A00F0A380BDF80630002B00F00F
:103D000099809A4228BF1A46ADF8062001462046FF
:103D100000F045FB03B030BD037C43B9D0F8B832A6
:103D20009B6A0DF10600984702234370E0E7D0F844
:103D3000B832DB6A0DF10600984702234370D7E7DB
:103D4000D2B2052A52D8DFE802F003101D2A374408
:103D5000D0F8B4325B6823B10DF10601007C9847BE
:103D6000C6E72946FFF7A0FFD4E7D0F8B4329B6836
:103D700023B10DF10601007C9847B9E72946FFF70A
:103D800093FFC7E7D0F8B432DB6823B10DF1060129
:103D9000007C9847ACE72946FFF786FFBAE7D0F8E2
:103DA000B4321B6923B10DF10601007C98479FE7EF
:103DB0002946FFF779FFADE7D0F8B4325B6923B14C
:103DC0000DF10601007C984792E72946FFF76CFF4A
:103DD000A0E7D0F8B4329B6923B10DF10601007C55
:103DE000984785E72946FFF75FFF93E72946FFF7E6
:103DF0005BFF8FE7037C33B9D0F8B8325B6B0DF112
:103E00000600984774E72946FFF74EFF82E7037CD8
:103E100043B9D0F8B8321B6B0DF106009847072361
:103E2000437065E72946FFF73FFF73E72946FFF731
:103E30003BFF6FE729462046FFF736FF6AE720463B
:103E400000F0DCFA66E738B504468B88FBB9CB880E
:103E5000EBB94B887F2B1AD803F07F0590F89C3282
:103E6000DBB2032B0CD080F89E522946FCF795FE5E
:103E7000204600F0C3FA35B1022384F89C3209E0F1
:103E8000FFF712FF06E0012384F89C3202E020468F
:103E9000FFF70AFF38BD000070B504460E468D7866
:103EA0002F4B1D70012D10D890F89C32DBB2022BE5
:103EB0000FD0032B26D0FFF7F7FE294B19782046A9
:103EC000FFF700FD0325284670BDFFF7EDFE032533
:103ED000F9E7A5B145602946FFF7EBFC054638B187
:103EE00031462046FFF7E0FE022384F89C32EAE7E1
:103EF000204600F083FA032384F89C32E3E700F0C5
:103F00007DFAE0E7CDB141688D4225D0C9B2FFF717
:103F1000D9FC134B197861602046FFF7CAFC0546AF
:103F2000B0B131462046FFF7BFFE21792046FFF7AA
:103F3000C9FC022384F89C32C5E7022380F89C3236
:103F400045602946FFF7BEFC204600F057FABAE765
:103F5000204600F053FAB6E700F050FA0025B2E729
:103F60005C11002008B5CB88012B0BD190F89C3256
:103F7000DBB2022B09D9032B09D10122011D00F06C
:103F80000EFA01E0FFF790FE08BD5BB213B9FFF730
:103F90008BFEF9E70146002341F8083F012200F0BB
:103FA000FEF9F1E708B590F89C32013B022B12D8DC
:103FB000CB88022B0CD10123C360D0F8A4320BB103
:103FC0000323C360022200F10C0100F0E8F908BDF0
:103FD000FFF76AFEFBE7FFF767FEF8E708B54B88D7
:103FE000012B04D0022B07D0FFF75EFE08BDC0F8FE
:103FF000A43200F003FAF9E78B881B0A80F8A0329C
:1040000000F0FCF9F2E708B590F89C32013B022B76
:1040100009D84B88012B00D008BD0023C0F8A4327A
:1040200000F0ECF9F8E7FFF73FFEF5E738B50C785C
:1040300004F06004202C06D0402C04D06CB1FFF7B3
:1040400033FE002407E0D0F8D432AE3350F82330EA
:104050009B6898470446204638BD4D78092D1DD8E9
:10406000DFE805F012191C161C08051C0F0BFFF7E2
:1040700025FEF0E7FFF7E7FEEDE7FFF70DFF04464B
:10408000E9E7FFF76FFFE6E7FFF78CFF2C46E2E773
:10409000FFF7A4FFDFE7FFF7B6FFDCE7FFF704FE5B
:1040A000D9E770B505460C460B7803F06003202B6A
:1040B00007D0402B05D023B1FFF7F6FD0026304690
:1040C00070BD95F89C32013B022B26D8217901293D
:1040D00005D921462846FFF7E7FD0026EFE72846E9
:1040E000FFF7C8FC68B900F1AE0255F822209168CC
:1040F00089B1C5F8D40293682146284698470646F8
:1041000000E00326E388002BD9D1002ED7D1284622
:1041100000F074F9D3E70326F4E721462846FFF7B9
:10412000C3FD0026CBE72DE9F04106460D468B88FE
:10413000DFB20C7804F06004202C08D0402C06D0AC
:10414000DCB1FFF7B1FD00242046BDE8F08139461F
:104150003046FFF791FC0446002840F0F980C6F88D
:10416000D40200F1AE0356F823309B68002BEBD04D
:104170002946304698470446E6E791F80180B8F1B1
:10418000010F31D0B8F1030F05D0B8F1000F67D09F
:10419000FFF78AFDD8E790F89C32DBB2022B04D0FF
:1041A000032B12D0FFF780FDCEE70FB1802F04D193
:1041B00029463046FFF778FDC6E73946FCF7C7FCCD
:1041C00080213046FCF7C3FCBEE74B8823B91FB102
:1041D000802F01D0CB881BB1304600F00FF9B3E738
:1041E0003946FCF7B4FCF7E790F89C32DBB2022BBF
:1041F00004D0032B12D0FFF757FDA5E70FB1802F96
:1042000004D129463046FFF74FFD9DE73946FCF7BC
:104210009EFC80213046FCF79AFC95E74B88002BEA
:1042200092D117F07F0F17D1304600F0E7F83946EA
:104230003046FFF721FC002886D1C6F8D40200F1F1
:10424000AE0256F822209268002A00F083802946A8
:1042500030469047044677E73946FCF780FCE3E7B1
:1042600090F89C22D2B2022A05D0032A28D0FFF768
:104270001BFD444668E70FB1802F14D113F0800F67
:1042800015D107F07F0707EB8707B90001F5A87183
:1042900031440431002301F80E3F0222304600F081
:1042A0007EF8444650E7FFF7FFFC44464CE707F032
:1042B0007F0707EB8707B900103131440431E9E784
:1042C0005BB2002B20DB07F00F0202EB820200EB57
:1042D000820292F8634124B3002B25DB07F07F03B1
:1042E00003EB83039C0004F5A874344404340FB139
:1042F000802F22D10023A373022204F10E01304645
:1043000000F04DF844461FE707F00F0202EB82026F
:1043100000EB820292F82340002CDDD1FFF7C4FCB1
:1043200012E7FFF7C1FC0FE707F07F0303EB8303FE
:104330009C00103434440434D9E739463046FCF745
:1043400016FC10B10123A373D6E70023A373D3E7B0
:104350000024F9E60446F7E600B370B50D461646AC
:104360000446FFF783FC01304300B3F5007F06D815
:104370009BB233802B7003236B7002230AE04FF44F
:104380000073F6E7EA5401345A1CD2B20021A95452
:104390000233DBB22278002AF4D170BD704708B531
:1043A00013460222C0F894224361416283610A46A7
:1043B0000021FCF7FAFB002008BD08B513460A46A9
:1043C0000021FCF7F2FB002008BD08B513460322CC
:1043D000C0F89422C0F85431C0F86411C0F85831C4
:1043E0000A460021FCF7E9FB002008BD08B513468A
:1043F0000A460021FCF7E1FB002008BD08B50422B5
:10440000C0F8942200231A461946FCF7CEFB002080
:1044100008BD08B50522C0F8942200231A461946A3
:10442000FCF7CBFB002008BD10B5D0F8D43203F167
:10443000B00250F822408CB100EB820043687BB19F
:1044400094F80002FF280DD09B6894F801222146C1
:104450009847FF2384F80032002010BD0320FCE7BA
:104460000020FAE70020F8E70A230380004870479D
:1044700004010020F8B506460F4F82213846FFF7A9
:10448000D6FB054601213846FFF7D1FB04468121C2
:104490003846FFF7CCFB0DB11022AA711CB14022A7
:1044A00022710022627118B1402202710022427111
:1044B000432333800048F8BD88000020F8B5064645
:1044C0000F4F82213846FFF7B2FB054601213846DF
:1044D000FFF7ADFB044681213846FFF7A8FB0DB17D
:1044E0001022AA711CB1402222710022627118B1FF
:1044F0004022027100224271432333800048F8BDFC
:1045000088000020F8B506460F4F82213846FFF795
:104510008EFB054601213846FFF789FB04468121C1
:104520003846FFF784FB0DB11022AA711CB100229E
:1045300022710222627118B10022027102224271BC
:10454000432333800048F8BD8800002038B5D0F8F8
:10455000D432B03350F8235095B10446FCF735FB04
:10456000C5F80C02D4F8D432B03304EB830463688A
:10457000DB6805F50371D5F804029847002038BDC3
:104580000320FCE738B5D0F8C852D0F8D432B033A5
:1045900050F8234084B301F00F0303EB830200EBD8
:1045A000820252694AB103EBC30C05EB8C05ED693D
:1045B000B2FBF5FC05FB1C2292B10023C4F81432B7
:1045C000D0F8D432B03300EB830043681B69ABB141
:1045D0000A4604F50471D4F808029847002038BD53
:1045E00003EB830300EB830300245C612346224634
:1045F000FCF7DBFA2046F2E70320F0E70020EEE7C5
:10460000F0B583B0D0F8D43203F1B00250F8227084
:1046100000228DF80720ADF80420002F7BD004463F
:104620000D46097811F0600634D0202E6CD1EA884E
:104630002AB311F0800F07D16B7887F80032EA882F
:104640003F2A13D8D2B212E0B03300EB83035B6889
:104650009B68394668789847EA88072A28BF072266
:1046600039462046FFF79BFE002651E0402287F89E
:10467000012239462046FFF7A8FE002648E0B03365
:1046800000EB83035B689B680022294668789847A3
:1046900000263DE06F780B2F31D8DFE807F00639B0
:1046A0003030303030303030162690F89C32DBB26B
:1046B000032B04D02946FFF7F7FA032628E002224D
:1046C00001A9FFF76CFE3E4622E090F89C32DBB277
:1046D000032B04D02946FFF7E7FA032618E001224E
:1046E0000DF10701FFF75BFE12E090F89C32DBB2A0
:1046F000032B0DD02946FFF7D7FA032608E02946F9
:10470000FFF7D2FA032603E02946FFF7CDFA032686
:10471000304603B0F0BD0326FAE738B504468121E0
:10472000FCF70DFA002584F8375001212046FCF7EC
:1047300006FA84F8775182212046FCF700FA84F8C3
:104740004B506564D4F8D43203F1B00254F82220FF
:104750009AB1B03304EB83035B685B689847D4F885
:10476000D432B03354F82300FCF73AFAD4F8D432F8
:10477000B03344F82350C4F8BC52002038BD70B5A3
:1047800004464FF40770FCF727FA002849D0054685
:104790004FF407720021FBF77FFDD4F8D432B03319
:1047A00044F82350C4F8BC52237C002B41D14FF471
:1047B0000073022281212046FCF7B6F9012684F815
:1047C00037604FF40073022231462046FCF7ACF903
:1047D00084F8776110236364082303228221204632
:1047E000FCF7A2F9012384F84B300026C5F80462D7
:1047F000D4F8D432B03304EB83035B681B6898476A
:10480000C5F81462C5F81862D5F8042262B3257C95
:104810001DBB4FF4007301212046FCF7CEF928465A
:1048200070BDD4F8D432B033002244F823200225DE
:10483000F5E74023022281212046FCF775F9012685
:1048400084F837604023022231462046FCF76CF999
:1048500084F8776110236364BEE74023012120467A
:10486000FCF7ABF90025DAE70225D8E739B1D0F833
:10487000D432B03300EB8300416000207047032046
:104880007047D0F8D432B03350F823302BB1C3F88E
:104890000812C3F810220020704703207047D0F898
:1048A000D432B03350F823301BB1C3F804120020C7
:1048B00070470320704708B5D0F8D432B03350F8B1
:1048C00023208AB1D2F814320BB1012008BD012394
:1048D000C2F81432D2F810328362D2F80822812151
:1048E000FCF763F90020F1E70320EFE710B5D0F8FB
:1048F000D432B03350F8232092B1047C44B94FF441
:104900000073D2F804220121FCF757F9204610BDAC
:104910004023D2F804220121FCF74FF90024F5E7E7
:104920000324F3E70D488546FCF78AFA0C480D4945
:104930000D4A002302E0D458C4500433C4188C42FA
:10494000F9D30A4A0A4C002301E013600432A24260
:10495000FBD3FBF779FCFBF7AFFFFEE7000002207B
:104960000000002010010020844A000810010020EF
:1049700060110020FEE70000F8B500BFF8BC08BCDD
:104980009E467047F8B500BFF8BC08BC9E4670470D
:104990000D0A5B463431315D205553415254323A51
:1049A0002043444320426C696E6B792073746172BA
:1049B00074696E672E2E2E0D0A0000005B4634319E
:1049C000315D205553422043444320696E69746928
:1049D000616C697A65642C2077616974696E6720FF
:1049E000666F7220686F73742E2E2E0D0A00000001
:1049F0005B463431315D2055534220686F7374201B
:104A0000636F6E6E65637465642C2068656C6C6F93
:104A10002073656E742E0D0A00000000564350206E
:104A2000496E7465726661636500000056435020EC
:104A3000436F6E666967000053544D333220434420
:104A4000432044656D6F000053544D6963726F6578
:104A50006C656374726F6E69637300000000000020
:104A60000102030400000000000000000102030432
:044A70000607080924
:084A7400D8B9FF7F010000002A
:044A7C002902000803
:044A80000102000827
:104A84001A03000000000000000000000000000005
:104A940000000000000000000000000004030904FE
:104AA4001201000202020040830440570002010286
:104AB40003010000E50B0008F10B0008E50C0008F9
:104AC400C90C00087D0C0008AD0C0008910C00080E
:104AD400690D0008010D00080D0D0008990D00086E
:104AE400650D000800C201000000080068656C6CD8
:104AF4006F776F726C640A0D000000000024F400EC
:104B0400010000001000000009024300020100C07F
:104B1400320904000001020201000524001001050D
:104B24002401000104240202052406000107058271
:104B34000308001009040100020A0000000705012F
:104B44000240000007058102400000007F47000882
:104B54001B47000801460008000000002944000823
:104B6400854500084D4500080000000000000000D5
:104B74000000000005450008BD4400087544000815
:104B8400694400080A060002000000400100000019
:040000050800492581
:00000001FF
